{"abi":[{"type":"constructor","inputs":[],"stateMutability":"nonpayable"},{"type":"function","name":"allowance","inputs":[{"name":"","type":"address","internalType":"address"},{"name":"","type":"address","internalType":"address"}],"outputs":[{"name":"","type":"uint256","internalType":"uint256"}],"stateMutability":"view"},{"type":"function","name":"approve","inputs":[{"name":"spender","type":"address","internalType":"address"},{"name":"amount","type":"uint256","internalType":"uint256"}],"outputs":[{"name":"","type":"bool","internalType":"bool"}],"stateMutability":"nonpayable"},{"type":"function","name":"balanceOf","inputs":[{"name":"","type":"address","internalType":"address"}],"outputs":[{"name":"","type":"uint256","internalType":"uint256"}],"stateMutability":"view"},{"type":"function","name":"decimals","inputs":[],"outputs":[{"name":"","type":"uint8","internalType":"uint8"}],"stateMutability":"view"},{"type":"function","name":"mint","inputs":[{"name":"to","type":"address","internalType":"address"},{"name":"amount","type":"uint256","internalType":"uint256"}],"outputs":[{"name":"","type":"bool","internalType":"bool"}],"stateMutability":"nonpayable"},{"type":"function","name":"name","inputs":[],"outputs":[{"name":"","type":"string","internalType":"string"}],"stateMutability":"view"},{"type":"function","name":"owner","inputs":[],"outputs":[{"name":"","type":"address","internalType":"address"}],"stateMutability":"view"},{"type":"function","name":"symbol","inputs":[],"outputs":[{"name":"","type":"string","internalType":"string"}],"stateMutability":"view"},{"type":"function","name":"totalSupply","inputs":[],"outputs":[{"name":"","type":"uint256","internalType":"uint256"}],"stateMutability":"view"},{"type":"function","name":"transfer","inputs":[{"name":"to","type":"address","internalType":"address"},{"name":"amount","type":"uint256","internalType":"uint256"}],"outputs":[{"name":"","type":"bool","internalType":"bool"}],"stateMutability":"nonpayable"},{"type":"function","name":"transferFrom","inputs":[{"name":"from","type":"address","internalType":"address"},{"name":"to","type":"address","internalType":"address"},{"name":"amount","type":"uint256","internalType":"uint256"}],"outputs":[{"name":"","type":"bool","internalType":"bool"}],"stateMutability":"nonpayable"},{"type":"function","name":"transferOwnership","inputs":[{"name":"newOwner","type":"address","internalType":"address"}],"outputs":[],"stateMutability":"nonpayable"},{"type":"event","name":"Approval","inputs":[{"name":"owner","type":"address","indexed":true,"internalType":"address"},{"name":"spender","type":"address","indexed":true,"internalType":"address"},{"name":"amount","type":"uint256","indexed":false,"internalType":"uint256"}],"anonymous":false},{"type":"event","name":"Transfer","inputs":[{"name":"from","type":"address","indexed":true,"internalType":"address"},{"name":"to","type":"address","indexed":true,"internalType":"address"},{"name":"amount","type":"uint256","indexed":false,"internalType":"uint256"}],"anonymous":false}],"bytecode":{"object":"0x608060405234610113576100135f54610117565b601f81116100cc575b507f4d6f636b205553444300000000000000000000000000000000000000000000125f5560015461004c90610117565b601f8111610084575b6008635553444360e01b01600155600380546001600160a01b031916331790556040516108ba90816101508239f35b60015f52601f0160051c7fb10e2d527612073b26eecdfd717e6a320cf44b4afac2b0732d9fcbe2b7fa0cf6908101905b8181106100c15750610055565b5f81556001016100b4565b5f8052601f0160051c7f290decd9548b62a8d60345a988386fc84ba6bc95484008f6362f93160ef3e563908101905b818110610108575061001c565b5f81556001016100fb565b5f80fd5b90600182811c92168015610145575b602083101461013157565b634e487b7160e01b5f52602260045260245ffd5b91607f169161012656fe60806040526004361015610011575f80fd5b5f3560e01c806306fdde03146106ec578063095ea7b31461063f57806318160ddd1461062257806323b872dd14610478578063313ce5671461045d57806340c10f19146103bf57806370a08231146103875780638da5cb5b1461035f57806395d89b4114610241578063a9059cbb146101a0578063dd62ed3e146101505763f2fde38b1461009d575f80fd5b3461014c57602036600319011261014c576100b66107e8565b600354906001600160a01b038216330361011b576001600160a01b03169081156100ea576001600160a01b03191617600355005b60405162461bcd60e51b81526020600482015260096024820152682130b21037bbb732b960b91b6044820152606490fd5b60405162461bcd60e51b81526020600482015260096024820152682737ba1037bbb732b960b91b6044820152606490fd5b5f80fd5b3461014c57604036600319011261014c576101696107e8565b6101716107fe565b6001600160a01b039182165f908152600560209081526040808320949093168252928352819020549051908152f35b3461014c57604036600319011261014c576101b96107e8565b6001600160a01b03166024356101d0821515610814565b335f5260046020528060405f20546101ea82821015610849565b335f5260046020520360405f2055815f52600460205260405f208181540190556040519081527fddf252ad1be2c89b69c2b068fc378daa952ba7f163c4a11628f55a4df523b3ef60203392a3602060405160018152f35b3461014c575f36600319011261014c576040515f6001548060011c90600181168015610355575b6020831081146103415782855290811561032557506001146102cf575b50819003601f01601f191681019067ffffffffffffffff8211818310176102bb57604082905281906102b790826107be565b0390f35b634e487b7160e01b5f52604160045260245ffd5b60015f9081529091507fb10e2d527612073b26eecdfd717e6a320cf44b4afac2b0732d9fcbe2b7fa0cf65b82821061030f57506020915082010182610285565b60018160209254838588010152019101906102fa565b90506020925060ff191682840152151560051b82010182610285565b634e487b7160e01b5f52602260045260245ffd5b91607f1691610268565b3461014c575f36600319011261014c576003546040516001600160a01b039091168152602090f35b3461014c57602036600319011261014c576001600160a01b036103a86107e8565b165f526004602052602060405f2054604051908152f35b3461014c57604036600319011261014c576103d86107e8565b6001600160a01b03166024356103ef821515610814565b600254908082018092116104495760207fddf252ad1be2c89b69c2b068fc378daa952ba7f163c4a11628f55a4df523b3ef915f936002558484526004825260408420818154019055604051908152a3602060405160018152f35b634e487b7160e01b5f52601160045260245ffd5b3461014c575f36600319011261014c57602060405160068152f35b3461014c57606036600319011261014c576104916107e8565b6104996107fe565b604435916001600160a01b03169081156105f2576001600160a01b0316916104c2831515610814565b5f8281526005602090815260408083203384529091529020548181106105bf57817fddf252ad1be2c89b69c2b068fc378daa952ba7f163c4a11628f55a4df523b3ef92602092855f526004845260405f20549061052183831015610849565b6001810161055b575b50855f52600484520360405f2055845f526004825260405f20818154019055604051908152a3602060405160018152f35b5f87815260058087526040808320338085529089528184209487900390945589835290875280822083835287529081902054905190815287907f8c5be1e5ebec7d5bd14f71427d1e84f3dd0314c0f7b2291e5b200ac8c7c3b925908790a38761052a565b60405162461bcd60e51b815260206004820152600b60248201526a139bdd08185b1b1bddd95960aa1b6044820152606490fd5b60405162461bcd60e51b81526020600482015260086024820152674261642066726f6d60c01b6044820152606490fd5b3461014c575f36600319011261014c576020600254604051908152f35b3461014c57604036600319011261014c576106586107e8565b6001600160a01b031660243581156106b957335f52600560205260405f20825f526020528060405f20556040519081527f8c5be1e5ebec7d5bd14f71427d1e84f3dd0314c0f7b2291e5b200ac8c7c3b92560203392a3602060405160018152f35b60405162461bcd60e51b815260206004820152600b60248201526a2130b21039b832b73232b960a91b6044820152606490fd5b3461014c575f36600319011261014c576040515f5f548060011c906001811680156107b4575b6020831081146103415782855290811561032557506001146107605750819003601f01601f191681019067ffffffffffffffff8211818310176102bb57604082905281906102b790826107be565b5f8080529091507f290decd9548b62a8d60345a988386fc84ba6bc95484008f6362f93160ef3e5635b82821061079e57506020915082010182610285565b6001816020925483858801015201910190610789565b91607f1691610712565b602060409281835280519182918282860152018484015e5f828201840152601f01601f1916010190565b600435906001600160a01b038216820361014c57565b602435906001600160a01b038216820361014c57565b1561081b57565b60405162461bcd60e51b815260206004820152600660248201526542616420746f60d01b6044820152606490fd5b1561085057565b60405162461bcd60e51b815260206004820152600c60248201526b125b9cdd59999a58da595b9d60a21b6044820152606490fdfea26469706673582212205af796dd57911a587c69f081cf84c5d1558306cb9c4b3f72c04aabdea864ba9064736f6c634300081e0033","linkReferences":{}},"methodIdentifiers":{"allowance(address,address)":"dd62ed3e","approve(address,uint256)":"095ea7b3","balanceOf(address)":"70a08231","decimals()":"313ce567","mint(address,uint256)":"40c10f19","name()":"06fdde03","owner()":"8da5cb5b","symbol()":"95d89b41","totalSupply()":"18160ddd","transfer(address,uint256)":"a9059cbb","transferFrom(address,address,uint256)":"23b872dd","transferOwnership(address)":"f2fde38b"},"id":16}