{"abi":[{"type":"constructor","inputs":[{"name":"usdc_","type":"address","internalType":"address"}],"stateMutability":"nonpayable"},{"type":"function","name":"admin","inputs":[],"outputs":[{"name":"","type":"address","internalType":"address"}],"stateMutability":"view"},{"type":"function","name":"claimPayout","inputs":[{"name":"batchIdHash","type":"bytes32","internalType":"bytes32"}],"outputs":[],"stateMutability":"nonpayable"},{"type":"function","name":"commit","inputs":[{"name":"batchIdHash","type":"bytes32","internalType":"bytes32"},{"name":"commitHash","type":"bytes32","internalType":"bytes32"},{"name":"encryptedUriHash","type":"bytes","internalType":"bytes"}],"outputs":[],"stateMutability":"nonpayable"},{"type":"function","name":"createBatch","inputs":[{"name":"batchIdHash","type":"bytes32","internalType":"bytes32"},{"name":"funder","type":"address","internalType":"address"},{"name":"windowStart","type":"uint64","internalType":"uint64"},{"name":"windowEnd","type":"uint64","internalType":"uint64"},{"name":"revealDeadline","type":"uint64","internalType":"uint64"},{"name":"seedHash","type":"bytes32","internalType":"bytes32"},{"name":"specHash","type":"bytes32","internalType":"bytes32"},{"name":"funderEncryptPubKey","type":"bytes","internalType":"bytes"},{"name":"refundTopBP","type":"uint16","internalType":"uint16"},{"name":"minCommitsPerProvider","type":"uint32","internalType":"uint32"},{"name":"maxCommitsPerProvider","type":"uint32","internalType":"uint32"},{"name":"requireRevealAllCommits","type":"bool","internalType":"bool"}],"outputs":[],"stateMutability":"nonpayable"},{"type":"function","name":"finalize","inputs":[{"name":"batchIdHash","type":"bytes32","internalType":"bytes32"},{"name":"providerList","type":"address[]","internalType":"address[]"},{"name":"payouts","type":"uint256[]","internalType":"uint256[]"},{"name":"selectedCommitIndices","type":"uint32[]","internalType":"uint32[]"},{"name":"scoresHash","type":"bytes32","internalType":"bytes32"}],"outputs":[],"stateMutability":"nonpayable"},{"type":"function","name":"fundBatch","inputs":[{"name":"batchIdHash","type":"bytes32","internalType":"bytes32"},{"name":"bountyAmount","type":"uint256","internalType":"uint256"}],"outputs":[],"stateMutability":"nonpayable"},{"type":"function","name":"getBatch","inputs":[{"name":"batchIdHash","type":"bytes32","internalType":"bytes32"}],"outputs":[{"name":"exists","type":"bool","internalType":"bool"},{"name":"operator","type":"address","internalType":"address"},{"name":"funder","type":"address","internalType":"address"},{"name":"windowStart","type":"uint64","internalType":"uint64"},{"name":"windowEnd","type":"uint64","internalType":"uint64"},{"name":"revealDeadline","type":"uint64","internalType":"uint64"},{"name":"seedHash","type":"bytes32","internalType":"bytes32"},{"name":"seedRevealed","type":"bool","internalType":"bool"},{"name":"mixBlockNumber","type":"uint64","internalType":"uint64"},{"name":"randomness","type":"bytes32","internalType":"bytes32"},{"name":"specHash","type":"bytes32","internalType":"bytes32"},{"name":"funded","type":"bool","internalType":"bool"},{"name":"finalized","type":"bool","internalType":"bool"},{"name":"bounty","type":"uint256","internalType":"uint256"},{"name":"joinBond","type":"uint256","internalType":"uint256"},{"name":"refundTopBP","type":"uint16","internalType":"uint16"},{"name":"funderEncryptPubKeyHash","type":"bytes32","internalType":"bytes32"},{"name":"minCommitsPerProvider","type":"uint32","internalType":"uint32"},{"name":"maxCommitsPerProvider","type":"uint32","internalType":"uint32"},{"name":"requireRevealAllCommits","type":"bool","internalType":"bool"}],"stateMutability":"view"},{"type":"function","name":"getCommit","inputs":[{"name":"batchIdHash","type":"bytes32","internalType":"bytes32"},{"name":"provider","type":"address","internalType":"address"},{"name":"commitIndex","type":"uint32","internalType":"uint32"}],"outputs":[{"name":"commitHash","type":"bytes32","internalType":"bytes32"},{"name":"committedAt","type":"uint64","internalType":"uint64"},{"name":"revealed","type":"bool","internalType":"bool"},{"name":"root","type":"bytes32","internalType":"bytes32"},{"name":"salt","type":"bytes32","internalType":"bytes32"},{"name":"publicUriHash","type":"bytes32","internalType":"bytes32"}],"stateMutability":"view"},{"type":"function","name":"getCommitCount","inputs":[{"name":"batchIdHash","type":"bytes32","internalType":"bytes32"},{"name":"provider","type":"address","internalType":"address"}],"outputs":[{"name":"","type":"uint32","internalType":"uint32"}],"stateMutability":"view"},{"type":"function","name":"getCutoff","inputs":[{"name":"batchIdHash","type":"bytes32","internalType":"bytes32"}],"outputs":[{"name":"","type":"uint64","internalType":"uint64"}],"stateMutability":"view"},{"type":"function","name":"getProviderSummary","inputs":[{"name":"batchIdHash","type":"bytes32","internalType":"bytes32"},{"name":"provider","type":"address","internalType":"address"}],"outputs":[{"name":"joined","type":"bool","internalType":"bool"},{"name":"joinedAt","type":"uint64","internalType":"uint64"},{"name":"commitCount","type":"uint32","internalType":"uint32"},{"name":"revealedCount","type":"uint32","internalType":"uint32"},{"name":"lastCommitAt","type":"uint64","internalType":"uint64"},{"name":"bond","type":"uint256","internalType":"uint256"},{"name":"bondSettled","type":"bool","internalType":"bool"},{"name":"payout","type":"uint256","internalType":"uint256"},{"name":"payoutClaimed","type":"bool","internalType":"bool"}],"stateMutability":"view"},{"type":"function","name":"getSelectedCommitIndex","inputs":[{"name":"batchIdHash","type":"bytes32","internalType":"bytes32"},{"name":"provider","type":"address","internalType":"address"}],"outputs":[{"name":"","type":"uint32","internalType":"uint32"}],"stateMutability":"view"},{"type":"function","name":"join","inputs":[{"name":"batchIdHash","type":"bytes32","internalType":"bytes32"}],"outputs":[],"stateMutability":"nonpayable"},{"type":"function","name":"lockRandomness","inputs":[{"name":"batchIdHash","type":"bytes32","internalType":"bytes32"}],"outputs":[],"stateMutability":"nonpayable"},{"type":"function","name":"revealCommits","inputs":[{"name":"batchIdHash","type":"bytes32","internalType":"bytes32"},{"name":"commitIndices","type":"uint32[]","internalType":"uint32[]"},{"name":"roots","type":"bytes32[]","internalType":"bytes32[]"},{"name":"salts","type":"bytes32[]","internalType":"bytes32[]"},{"name":"publicUris","type":"bytes[]","internalType":"bytes[]"}],"outputs":[],"stateMutability":"nonpayable"},{"type":"function","name":"revealSeed","inputs":[{"name":"batchIdHash","type":"bytes32","internalType":"bytes32"},{"name":"seed","type":"bytes32","internalType":"bytes32"}],"outputs":[],"stateMutability":"nonpayable"},{"type":"function","name":"setAdmin","inputs":[{"name":"newAdmin","type":"address","internalType":"address"}],"outputs":[],"stateMutability":"nonpayable"},{"type":"function","name":"usdc","inputs":[],"outputs":[{"name":"","type":"address","internalType":"contract IERC20"}],"stateMutability":"view"},{"type":"event","name":"AdminChanged","inputs":[{"name":"newAdmin","type":"address","indexed":true,"internalType":"address"}],"anonymous":false},{"type":"event","name":"BatchCreated","inputs":[{"name":"batchIdHash","type":"bytes32","indexed":true,"internalType":"bytes32"},{"name":"operator","type":"address","indexed":true,"internalType":"address"},{"name":"funder","type":"address","indexed":true,"internalType":"address"},{"name":"windowStart","type":"uint64","indexed":false,"internalType":"uint64"},{"name":"windowEnd","type":"uint64","indexed":false,"internalType":"uint64"},{"name":"revealDeadline","type":"uint64","indexed":false,"internalType":"uint64"},{"name":"seedHash","type":"bytes32","indexed":false,"internalType":"bytes32"},{"name":"specHash","type":"bytes32","indexed":false,"internalType":"bytes32"},{"name":"refundTopBP","type":"uint16","indexed":false,"internalType":"uint16"},{"name":"funderEncryptPubKeyHash","type":"bytes32","indexed":false,"internalType":"bytes32"},{"name":"minCommitsPerProvider","type":"uint32","indexed":false,"internalType":"uint32"},{"name":"maxCommitsPerProvider","type":"uint32","indexed":false,"internalType":"uint32"},{"name":"requireRevealAllCommits","type":"bool","indexed":false,"internalType":"bool"}],"anonymous":false},{"type":"event","name":"BatchFunded","inputs":[{"name":"batchIdHash","type":"bytes32","indexed":true,"internalType":"bytes32"},{"name":"bounty","type":"uint256","indexed":false,"internalType":"uint256"},{"name":"joinBond","type":"uint256","indexed":false,"internalType":"uint256"}],"anonymous":false},{"type":"event","name":"BondRefunded","inputs":[{"name":"batchIdHash","type":"bytes32","indexed":true,"internalType":"bytes32"},{"name":"provider","type":"address","indexed":true,"internalType":"address"},{"name":"amount","type":"uint256","indexed":false,"internalType":"uint256"}],"anonymous":false},{"type":"event","name":"BondSlashed","inputs":[{"name":"batchIdHash","type":"bytes32","indexed":true,"internalType":"bytes32"},{"name":"provider","type":"address","indexed":true,"internalType":"address"},{"name":"to","type":"address","indexed":true,"internalType":"address"},{"name":"amount","type":"uint256","indexed":false,"internalType":"uint256"}],"anonymous":false},{"type":"event","name":"Committed","inputs":[{"name":"batchIdHash","type":"bytes32","indexed":true,"internalType":"bytes32"},{"name":"provider","type":"address","indexed":true,"internalType":"address"},{"name":"commitIndex","type":"uint32","indexed":false,"internalType":"uint32"},{"name":"commitHash","type":"bytes32","indexed":false,"internalType":"bytes32"},{"name":"committedAt","type":"uint64","indexed":false,"internalType":"uint64"},{"name":"encryptedUriHash","type":"bytes","indexed":false,"internalType":"bytes"}],"anonymous":false},{"type":"event","name":"CutoffComputed","inputs":[{"name":"batchIdHash","type":"bytes32","indexed":true,"internalType":"bytes32"},{"name":"cutoff","type":"uint64","indexed":false,"internalType":"uint64"}],"anonymous":false},{"type":"event","name":"Finalized","inputs":[{"name":"batchIdHash","type":"bytes32","indexed":true,"internalType":"bytes32"}],"anonymous":false},{"type":"event","name":"Joined","inputs":[{"name":"batchIdHash","type":"bytes32","indexed":true,"internalType":"bytes32"},{"name":"provider","type":"address","indexed":true,"internalType":"address"},{"name":"joinedAt","type":"uint64","indexed":false,"internalType":"uint64"},{"name":"bond","type":"uint256","indexed":false,"internalType":"uint256"}],"anonymous":false},{"type":"event","name":"PayoutClaimed","inputs":[{"name":"batchIdHash","type":"bytes32","indexed":true,"internalType":"bytes32"},{"name":"provider","type":"address","indexed":true,"internalType":"address"},{"name":"amount","type":"uint256","indexed":false,"internalType":"uint256"}],"anonymous":false},{"type":"event","name":"PayoutsSet","inputs":[{"name":"batchIdHash","type":"bytes32","indexed":true,"internalType":"bytes32"},{"name":"scoresHash","type":"bytes32","indexed":false,"internalType":"bytes32"}],"anonymous":false},{"type":"event","name":"RandomnessLocked","inputs":[{"name":"batchIdHash","type":"bytes32","indexed":true,"internalType":"bytes32"},{"name":"mixBlockNumber","type":"uint64","indexed":false,"internalType":"uint64"}],"anonymous":false},{"type":"event","name":"Revealed","inputs":[{"name":"batchIdHash","type":"bytes32","indexed":true,"internalType":"bytes32"},{"name":"provider","type":"address","indexed":true,"internalType":"address"},{"name":"commitIndex","type":"uint32","indexed":false,"internalType":"uint32"},{"name":"commitHash","type":"bytes32","indexed":false,"internalType":"bytes32"},{"name":"root","type":"bytes32","indexed":false,"internalType":"bytes32"},{"name":"salt","type":"bytes32","indexed":false,"internalType":"bytes32"},{"name":"publicUri","type":"bytes","indexed":false,"internalType":"bytes"}],"anonymous":false},{"type":"event","name":"SeedRevealed","inputs":[{"name":"batchIdHash","type":"bytes32","indexed":true,"internalType":"bytes32"},{"name":"seed","type":"bytes32","indexed":false,"internalType":"bytes32"},{"name":"randomness","type":"bytes32","indexed":false,"internalType":"bytes32"}],"anonymous":false}],"bytecode":{"object":"0x60a03461010257601f612c8638819003918201601f19168301916001600160401b038311848410176101065780849260209460405283398101031261010257516001600160a01b038116908190036101025780156100cd576080525f80546001600160a01b031916339081178255604051917f7ce7ec0b50378fb6c0186ffb5f48325f6593fcb4ca4386f21861af3129188f5c9080a2612b6b908161011b8239608051818181610bf001528181610d25015281816116a9015281816118e601528181611ba7015261204e0152f35b60405162461bcd60e51b815260206004820152600d60248201526c1554d110c81c995c5d5a5c9959609a1b6044820152606490fd5b5f80fd5b634e487b7160e01b5f52604160045260245ffdfe60806040526004361015610011575f80fd5b5f3560e01c80631408adf3146121eb57806316c9b2bb14611f7657806317f2e85b14611c2357806339be3cc814611bd65780633e413bee14611b92578063704b6c0214611abc578063838f79bf14611a00578063ad677d0b1461180b578063b4c63471146115fc578063c136981314611311578063c3f5167a146112dd578063cd08b2f014610978578063ea31f3ca14610857578063ed42136f146106fa578063f4667b5514610646578063f79c02d314610139578063f851a440146101125763fe67517f146100df575f80fd5b3461010e57602036600319011261010e5760206100fd600435612a22565b6001600160401b0360405191168152f35b5f80fd5b3461010e575f36600319011261010e575f546040516001600160a01b039091168152602090f35b3461010e5761018036600319011261010e5761015361244a565b604435906001600160401b038216820361010e57606435916001600160401b038316830361010e57608435916001600160401b038316830361010e5760e4356001600160401b03811161010e576101ae903690600401612460565b90610104359461ffff8616860361010e57610124359063ffffffff8216820361010e57610144359363ffffffff8516850361010e57610164351515610164350361010e5760043515610613576001600160a01b038616156105e1576001600160401b0389166001600160401b03881610156105af576001600160401b0389166001600160401b03831611156105755760a435156105415760c4351561050d5761271061ffff8916116104d65780156104a45763ffffffff85161561046e576004355f52600160205260405f209788549660ff8816610437576001600160a81b03199097163360081b610100600160a81b03161760019081178a55890180546001600160e01b0319166001600160a01b039098169790971760a089901b67ffffffffffffffff60a01b16179096556002880180546fffffffffffffffffffffffffffffffff19166001600160401b03808c1691909117604085811b6fffffffffffffffff0000000000000000169190911790925560c43560038b015560048a01805468ffffffffffffffffff191663ffffffff8781169190911760208a901b67ffffffff00000000161761016435151590941b60ff60401b169390931790559096879561ffff9391929161039a919060a43560058e0155600d8d0180548719168688161790553691612761565b602081519101209384600e8c01558160018060a01b038c5460081c169b6001808060a01b03910154169c816040519c168c521660208b015216604089015260a435606089015260c43560808901521660a087015260c08601521660e0840152166101008201526101643515156101208201527f161891a6af51bf497f5c9ba5af33c99d18f6701906f22707247b275f1d4584ef61014060043592a4005b60405162461bcd60e51b815260206004820152600f60248201526e105b1c9958591e4818dc99585d1959608a1b6044820152606490fd5b60405162461bcd60e51b815260206004820152600e60248201526d426164206d6178436f6d6d69747360901b6044820152606490fd5b60405162461bcd60e51b815260206004820152600a602482015269426164207075626b657960b01b6044820152606490fd5b60405162461bcd60e51b815260206004820152600f60248201526e042616420726566756e64546f70425608c1b6044820152606490fd5b60405162461bcd60e51b815260206004820152600c60248201526b084c2c840e6e0cac690c2e6d60a31b6044820152606490fd5b60405162461bcd60e51b815260206004820152600c60248201526b084c2c840e6cacac890c2e6d60a31b6044820152606490fd5b60405162461bcd60e51b81526020600482015260126024820152714261642072657665616c446561646c696e6560701b6044820152606490fd5b60405162461bcd60e51b815260206004820152600a6024820152694261642077696e646f7760b01b6044820152606490fd5b60405162461bcd60e51b815260206004820152600a6024820152692130b210333ab73232b960b11b6044820152606490fd5b60405162461bcd60e51b815260206004820152600b60248201526a1098590818985d18da125960aa1b6044820152606490fd5b3461010e57606036600319011261010e5761065f61244a565b6044359063ffffffff82169182810361010e5760c0926106ad926004355f52600260205260405f209060018060a01b03165f526020526106a8600160405f2001918254116126cf565b612707565b50805490600181015490600281015460ff60046003840154930154936040519586526001600160401b038116602087015260401c16151560408501526060840152608083015260a0820152f35b3461010e57602036600319011261010e576004355f52600160205260405f20805460018201549160028101546005820154600683015460ff1660088401546001600160401b03166009850154600386015490600a87015492600b88015494600c89015496600d8a015461ffff1698600e8b01549a600401549b6040519d818f9260ff1615158352600160a01b600190039060081c166020830152600160a01b600190038116604083015260a01c6001600160401b031690606001528c6001600160401b038216906080015260401c6001600160401b031660a08d015260c08c0152151560e08b01526101008a015261012089015261014088015260ff8116151561016088015260081c60ff1615156101808701526101a08601526101c08501526101e084015261020083015263ffffffff81166102208301528060201c63ffffffff1661024083015260401c60ff16151561026082015261028090f35b3461010e57602036600319011261010e57600435805f52600160205260405f2061088460ff8254166124c8565b61089460ff600a830154166127de565b6108a560ff60068301541615612502565b60088101906001600160401b03825416610942576001600160401b0360026108d2920154164210156125b5565b6001430180431161092e577f3122ae6107e4a0d19750601799ba8bbb8bf7cdfff019b1fcfcd2966e1fdcfe26916001600160401b0360209216906001600160401b0382166001600160401b0319825416179055604051908152a2005b634e487b7160e01b5f52601160045260245ffd5b60405162461bcd60e51b815260206004820152600e60248201526d105b1c9958591e481b1bd8dad95960921b6044820152606490fd5b3461010e5760a036600319011261010e576004356024356001600160401b03811161010e576109ab90369060040161241a565b6044356001600160401b03811161010e576109ca90369060040161241a565b90926064356001600160401b03811161010e576109eb90369060040161241a565b92909460843593875f526001602052610a1460018060a01b0360405f205460081c16331461248d565b875f52600160205260405f2092610a2e60ff8554166124c8565b600a84019760ff8954610a428282166127de565b60081c166112a4576001600160401b03600286015460401c1642111561126b57610a7260ff600687015416612852565b871561123757610a83828914612626565b610a8e838914612626565b8615611201575f5f5b8381106111e15750600b860154106111a4575f5b888110610e2057505050505061ffff600d820154169081850294808604830361092e576127108896049283159081610e16575b50610e0d575b808311610e05575b5f5b818110610b56578688817fd8d5372f9d786d72b9f8057676ac85e6069a65a378103b63230e80dc9ec0e0d060208a604051908152a2805461ff0019166101001790557fd5eaff5f7e00ea5a32e32c0121393190de285e9424ce5485cd0b0a51d6b77d625f80a2005b610b69610b6482848861269a565b612a0e565b875f52600260205260405f2060018060a01b0382165f5260205260405f2060038101805460ff811615610ba3575b50505050600101610aee565b60ff1916600117905590975084821015610ce557600201805460405163a9059cbb60e01b81526001600160a01b038a1660048201526024810191909152909190602081806044810103815f7f00000000000000000000000000000000000000000000000000000000000000006001600160a01b03165af1908115610cda575f91610cac575b5015610c72578997887f7514b10bc04eb31bd8aa5b8639cb6c21e464040da82dd4e84534cd91f49ac67560206001955493604051948552868060a01b031693a35b908a8080610b97565b60405162461bcd60e51b81526020600482015260126024820152711554d110c81c99599d5b990819985a5b195960721b6044820152606490fd5b610ccd915060203d8111610cd3575b610cc58183612541565b81019061259d565b8b610c28565b503d610cbb565b6040513d5f823e3d90fd5b6001840180546002909201805460405163a9059cbb60e01b81526001600160a01b039490941660048501526024840152909291602081806044810103815f7f00000000000000000000000000000000000000000000000000000000000000006001600160a01b03165af1908115610cda575f91610de7575b5015610dae57915491546040519081528a986001936001600160a01b03908116929116908a907fffbfeb335ad0399eec5e944c6b8141131ec88d191cb229118664d4e876242c8b90602090a4610c69565b60405162461bcd60e51b81526020600482015260116024820152701554d110c81cdb185cda0819985a5b1959607a1b6044820152606490fd5b610dff915060203d8111610cd357610cc58183612541565b8c610d5d565b915081610aec565b60019250610ae4565b9050151589610ade565b610e2e610b64828b8a61269a565b6001600160a01b03811615611170578b5f52600260205260405f2060018060a01b0382165f5260205260405f20908154610e6a60ff82166125ed565b63ffffffff8160481c1690610e80821515612892565b60048a015463ffffffff811680611129575b5060401c60ff161561110a5760681c63ffffffff16036110d057610eb7905b8d6128cb565b610eca610ec584888761269a565b6126be565b63ffffffff80831691160361109357610ee69060018301612707565b5060ff600182015460401c161561105657600281015480156110225760038201548015610fee57610f448f92610f3660405193849260208401968791606093918352602083015260408201520190565b03601f198101835282612541565b519020905403610fa957600401908154610f6f57600191610f6682868961269a565b35905501610aab565b60405162461bcd60e51b8152602060048201526012602482015271223ab83634b1b0ba3290383937bb34b232b960711b6044820152606490fd5b60405162461bcd60e51b815260206004820152601860248201527f53656c656374656420636f6d6d6974206d69736d6174636800000000000000006044820152606490fd5b60405162461bcd60e51b815260206004820152600c60248201526b135a5cdcda5b99c81cd85b1d60a21b6044820152606490fd5b60405162461bcd60e51b815260206004820152600c60248201526b135a5cdcda5b99c81c9bdbdd60a21b6044820152606490fd5b60405162461bcd60e51b815260206004820152601560248201527414d95b1958dd1959081b9bdd081c995d99585b1959605a1b6044820152606490fd5b60405162461bcd60e51b815260206004820152601560248201527415dc9bdb99c81cd95b1958dd19590818dbdb5b5a5d605a1b6044820152606490fd5b60405162461bcd60e51b8152602060048201526012602482015271139bdd08199d5b1b1e481c995d99585b195960721b6044820152606490fd5b610eb792915063ffffffff6111249160681c161515612661565b610eb1565b8310611135575f610e92565b60405162461bcd60e51b8152602060048201526013602482015272135a5b8818dbdb5b5a5d1cc81b9bdd081b595d606a1b6044820152606490fd5b60405162461bcd60e51b815260206004820152600c60248201526b2130b210383937bb34b232b960a11b6044820152606490fd5b60405162461bcd60e51b81526020600482015260156024820152745061796f7574732065786365656420626f756e747960581b6044820152606490fd5b906111fa6001916111f384878a61269a565b3590612a01565b9101610a97565b60405162461bcd60e51b815260206004820152600e60248201526d084c2c840e6c6dee4cae690c2e6d60931b6044820152606490fd5b60405162461bcd60e51b815260206004820152600c60248201526b4e6f2070726f76696465727360a01b6044820152606490fd5b60405162461bcd60e51b815260206004820152601160248201527014995d99585b081b9bdd0818db1bdcd959607a1b6044820152606490fd5b60405162461bcd60e51b8152602060048201526011602482015270105b1c9958591e48199a5b985b1a5e9959607a1b6044820152606490fd5b3461010e57604036600319011261010e5760206113036112fb61244a565b6004356128cb565b63ffffffff60405191168152f35b3461010e57606036600319011261010e576024356004356044356001600160401b03811161010e57611347903690600401612460565b92825f52600160205260405f2061136160ff8254166124c8565b61137160ff600a830154166127de565b61138d6001600160401b03600183015460a01c164210156125b5565b6113a56001600160401b036002830154164210612817565b81156115c657835f52600260205260405f2060018060a01b0333165f5260205260405f209063ffffffff8060048454936113e160ff86166125ed565b015460201c169160481c161015611594576001600160401b0342169260018201906040519460c086018681106001600160401b03821117611580576040528486526020860192818452604087015f815260608801915f8352608089015f815260a08a01915f83528054600160401b8110156115805761146591600182018155612707565b94909461156d576114d9611568986004957f71f526efc0a28aeceea530f0a714f18d63bdf88833f7a673a5aaf31003b3ea9a9d5188556001600160401b038060018a01935116166001600160401b031983541617825551151560ff60401b825491151560401b169060ff60401b1916179055565b5160028501555160038401555191015583549363ffffffff8560481c16946cffffffff00000000000000000061150e876127a6565b60481b166001600160401b0360881b4260881b169178ffffffffffffffff00000000ffffffff00000000000000000019161717905560405194859485526020850152604084015260806060840152339660808401916127be565b0390a3005b634e487b7160e01b5f525f60045260245ffd5b634e487b7160e01b5f52604160045260245ffd5b60405162461bcd60e51b815260206004820152600a6024820152690436f6d6d6974206361760b41b6044820152606490fd5b60405162461bcd60e51b815260206004820152600e60248201526d084c2c840c6dedadad2e890c2e6d60931b6044820152606490fd5b3461010e57602036600319011261010e57600435805f52600160205260ff600a60405f2061162c838254166124c8565b015460081c16156117d657805f52600260205260405f2060018060a01b0333165f5260205260405f209061166360ff8354166125ed565b6005820180549260ff841661179f576004015492831561176e5760ff1916600117905560405163a9059cbb60e01b8152336004820152602481018390526020816044815f7f00000000000000000000000000000000000000000000000000000000000000006001600160a01b03165af1908115610cda575f9161174f575b5015611715576040519182527f038b0cdf6318f158304d2b2f11b821333b4e69a21d83e945b6a741e1bbfc234b60203393a3005b60405162461bcd60e51b81526020600482015260126024820152711554d110c81c185e5bdd5d0819985a5b195960721b6044820152606490fd5b611768915060203d602011610cd357610cc58183612541565b836116e1565b60405162461bcd60e51b8152602060048201526009602482015268139bc81c185e5bdd5d60ba1b6044820152606490fd5b60405162461bcd60e51b815260206004820152600f60248201526e105b1c9958591e4818db185a5b5959608a1b6044820152606490fd5b60405162461bcd60e51b815260206004820152600d60248201526c139bdd08199a5b985b1a5e9959609a1b6044820152606490fd5b3461010e57602036600319011261010e57600435805f52600160205260405f209061183960ff8354166124c8565b61184960ff600a840154166127de565b6118616001600160401b036002840154164210612817565b5f818152600260209081526040808320338452909152902080549260ff84166119ca57600c600191015493611897851515612562565b68ffffffffffffffffff19164260081b68ffffffffffffffff001617178155600281018390556040516323b872dd60e01b8152336004820152306024820152604481018490526020816064815f7f00000000000000000000000000000000000000000000000000000000000000006001600160a01b03165af1908115610cda575f916119ab575b5015611966576001600160401b03905460081c169160405192835260208301527f1ec167267cbf815061f7946b6c8200000be622fd224684cd4fcc4aee265ce8bc60403393a3005b60405162461bcd60e51b815260206004820152601d60248201527f5553444320626f6e64207472616e7366657246726f6d206661696c65640000006044820152606490fd5b6119c4915060203d602011610cd357610cc58183612541565b8461191e565b60405162461bcd60e51b815260206004820152600e60248201526d105b1c9958591e481a9bda5b995960921b6044820152606490fd5b3461010e57604036600319011261010e57611a1961244a565b6004355f52600260205260405f209060018060a01b03165f5260205261012060405f2080549060028101549060ff60038201541660ff6005600484015493015416926001600160401b036040519560ff811615158752818160081c16602088015263ffffffff8160481c16604088015263ffffffff8160681c16606088015260881c16608086015260a0850152151560c084015260e08301521515610100820152f35b3461010e57602036600319011261010e576004356001600160a01b0381169081900361010e575f546001600160a01b0381163303611b61578115611b30576001600160a01b03191681175f9081557f7ce7ec0b50378fb6c0186ffb5f48325f6593fcb4ca4386f21861af3129188f5c9080a2005b60405162461bcd60e51b81526020600482015260096024820152682130b21030b236b4b760b91b6044820152606490fd5b60405162461bcd60e51b81526020600482015260096024820152682737ba1030b236b4b760b91b6044820152606490fd5b3461010e575f36600319011261010e576040517f00000000000000000000000000000000000000000000000000000000000000006001600160a01b03168152602090f35b3461010e57604036600319011261010e57611bef61244a565b6004355f52600260205260405f209060018060a01b03165f52602052602063ffffffff60405f205460481c16604051908152f35b3461010e5760a036600319011261010e576004356024356001600160401b03811161010e57611c5690369060040161241a565b6044929192356001600160401b03811161010e57611c7890369060040161241a565b92906064356001600160401b03811161010e57611c9990369060040161241a565b9190936084356001600160401b03811161010e57611cbb90369060040161241a565b9095855f5260016020526001600160401b03600260405f20611ce060ff8254166124c8565b0154611cf08282164210156125b5565b60401c164211611f4157855f98939852600260205260405f2060018060a01b0333165f5260205260405f2098611d2960ff8b54166125ed565b611d34848a14612626565b611d3f868514612626565b611d4a838714612626565b611d55891515612661565b60018a01935f5b8a8110611d6557005b611d73610ec5828d8661269a565b90611d92875492611d8c63ffffffff82169485106126cf565b88612707565b5088600182018c8c611de8611dc687611dbe818c885499611db960ff8c60401c1615612502565b61269a565b35938d61269a565b6040805160208101958652908101939093523560608301528160808101610f36565b519020835403611f0a578f6001958f948f948f8f948e611ecd8f94848f8e818f9a82987fe08628d1283734bd472467b8d53eb0ae7c38f6b367af91944518e72d434bbc069f8f85611f019f8f90611ed49f838f9391611e7392829f83611ec69f611e7e9a611e859c600160401b611e689560ff60401b191617905561269a565b3560028c015561269a565b356003880155612720565b3691612761565b602081519101206004830155805463ffffffff60681b611ead63ffffffff8360681c166127a6565b60681b169063ffffffff60681b1916179055549c61269a565b359661269a565b3599612720565b979091604051958695865260208601526040850152606084015260a06080840152339660a08401916127be565b0390a301611d5c565b60405162461bcd60e51b815260206004820152600f60248201526e086dedadad2e840dad2e6dac2e8c6d608b1b6044820152606490fd5b60405162461bcd60e51b815260206004820152600d60248201526c14995d99585b0818db1bdcd959609a1b6044820152606490fd5b3461010e57604036600319011261010e57600435602435815f52600160205260405f20611fa660ff8254166124c8565b600a810180549160ff83166121b55760018101546001600160a01b0316330361218357831561215157620f42408404801561211a57611fe490612adb565b92620f4240840293808504620f4240149015171561092e5783600c60019361200d831515612562565b600b8101889055015560ff19161790556040516323b872dd60e01b8152336004820152306024820152604481018390526020816064815f6001600160a01b037f0000000000000000000000000000000000000000000000000000000000000000165af1908115610cda575f916120fb575b50156120b6577feb7c062f8757ba1bfc535c0b0d3c3ba26e994df21182c68c3239b66ca6b700b49160409182519182526020820152a2005b60405162461bcd60e51b815260206004820152601f60248201527f5553444320626f756e7479207472616e7366657246726f6d206661696c6564006044820152606490fd5b612114915060203d602011610cd357610cc58183612541565b8461207e565b60405162461bcd60e51b815260206004820152600f60248201526e426f756e7479203c2031205553444360881b6044820152606490fd5b60405162461bcd60e51b815260206004820152600a60248201526942616420626f756e747960b01b6044820152606490fd5b60405162461bcd60e51b815260206004820152600a6024820152692737ba10333ab73232b960b11b6044820152606490fd5b60405162461bcd60e51b815260206004820152600e60248201526d105b1c9958591e48199d5b99195960921b6044820152606490fd5b3461010e57604036600319011261010e57600435602435815f52600160205261222460018060a01b0360405f205460081c16331461248d565b815f52600160205260405f209061223e60ff8354166124c8565b6001600160401b036008830154169081156123e857600683019081549261226860ff851615612502565b804311156123b25760405160208101908382526020815261228a604082612541565b519020600586015403612382574092831561234557847f70b17fa91147b8f454224660292e63a453d2a62b278bfcc0e4b22e6a8b62b8819460409460016009948660078c9b015560ff191617905584516020810191858352868201528581526122f4606082612541565b519020918291015582519182526020820152a27ff439a88a1632125eb73d447235297fb66846e808086b9bab0be900e99168f100602061233383612a22565b6001600160401b0360405191168152a2005b60405162461bcd60e51b8152602060048201526015602482015274426c6f636b6861736820756e617661696c61626c6560581b6044820152606490fd5b60405162461bcd60e51b8152602060048201526008602482015267109859081cd9595960c21b6044820152606490fd5b60405162461bcd60e51b815260206004820152600e60248201526d57616974206d697820626c6f636b60901b6044820152606490fd5b60405162461bcd60e51b815260206004820152600a602482015269139bdd081b1bd8dad95960b21b6044820152606490fd5b9181601f8401121561010e578235916001600160401b03831161010e576020808501948460051b01011161010e57565b602435906001600160a01b038216820361010e57565b9181601f8401121561010e578235916001600160401b03831161010e576020838186019501011161010e57565b1561249457565b60405162461bcd60e51b815260206004820152600c60248201526b2737ba1037b832b930ba37b960a11b6044820152606490fd5b156124cf57565b60405162461bcd60e51b815260206004820152600b60248201526a139bdd0818dc99585d195960aa1b6044820152606490fd5b1561250957565b60405162461bcd60e51b815260206004820152601060248201526f105b1c9958591e481c995d99585b195960821b6044820152606490fd5b90601f801991011681019081106001600160401b0382111761158057604052565b1561256957565b60405162461bcd60e51b815260206004820152600c60248201526b109bdb99081b9bdd081cd95d60a21b6044820152606490fd5b9081602091031261010e5751801515810361010e5790565b156125bc57565b60405162461bcd60e51b8152602060048201526009602482015268546f6f206561726c7960b81b6044820152606490fd5b156125f457565b60405162461bcd60e51b815260206004820152600a602482015269139bdd081a9bda5b995960b21b6044820152606490fd5b1561262d57565b60405162461bcd60e51b815260206004820152600c60248201526b098cadc40dad2e6dac2e8c6d60a31b6044820152606490fd5b1561266857565b60405162461bcd60e51b815260206004820152600a6024820152694e6f2072657665616c7360b01b6044820152606490fd5b91908110156126aa5760051b0190565b634e487b7160e01b5f52603260045260245ffd5b3563ffffffff8116810361010e5790565b156126d657565b60405162461bcd60e51b8152602060048201526009602482015268084c2c840d2dcc8caf60bb1b6044820152606490fd5b80548210156126aa575f52600560205f20910201905f90565b91908110156126aa5760051b81013590601e198136030182121561010e5701908135916001600160401b03831161010e57602001823603811361010e579190565b9291926001600160401b038211611580576040519161278a601f8201601f191660200184612541565b82948184528183011161010e578281602093845f960137010152565b63ffffffff60019116019063ffffffff821161092e57565b908060209392818452848401375f828201840152601f01601f1916010190565b156127e557565b60405162461bcd60e51b815260206004820152600a602482015269139bdd08199d5b99195960b21b6044820152606490fd5b1561281e57565b60405162461bcd60e51b815260206004820152600c60248201526b15da5b991bddc8195b99195960a21b6044820152606490fd5b1561285957565b60405162461bcd60e51b815260206004820152601160248201527014d95959081b9bdd081c995d99585b1959607a1b6044820152606490fd5b1561289957565b60405162461bcd60e51b815260206004820152600a6024820152694e6f20636f6d6d69747360b01b6044820152606490fd5b90815f5260016020526128f360ff600660405f206128eb838254166124c8565b015416612852565b815f52600260205260405f209060018060a01b03165f5260205261293b60405f209161293663ffffffff845461292b60ff82166125ed565b60481c161515612892565b612a22565b5f9060015f9301908154916001600160401b035f92165b8363ffffffff8416106129b1575b505050501561296c5790565b60405162461bcd60e51b815260206004820152601760248201527f4e6f20636f6d6d6974206265666f7265206375746f66660000000000000000006044820152606490fd5b9193826001600160401b0360016129cb8886989a96612707565b50015416116129f857505060019163ffffffff841663ffffffff811461092e576001019194929394612952565b93819550612960565b9190820180921161092e57565b356001600160a01b038116810361010e5790565b5f52600160205260405f20612a3a60ff8254166124c8565b612a4a60ff600683015416612852565b6001600160401b03600282015416906001600160401b03600182015460a01c168092036001600160401b03811161092e576001600160401b03168015612aab5760096001600160401b039201540616016001600160401b03811161092e5790565b60405162461bcd60e51b81526020600482015260086024820152672130b21039b830b760c11b6044820152606490fd5b8015612b30576001810180821161092e5760011c815b828210612afd57505090565b909150818015612b1c5780612b13918304612a01565b60011c90612af1565b634e487b7160e01b5f52601260045260245ffd5b505f9056fea264697066735822122062e0a7478d231c0f94f9f0a0dd9838c4cfe562210ab5f48a8d26def5e72b3e0f64736f6c634300081e0033","linkReferences":{}},"methodIdentifiers":{"admin()":"f851a440","claimPayout(bytes32)":"b4c63471","commit(bytes32,bytes32,bytes)":"c1369813","createBatch(bytes32,address,uint64,uint64,uint64,bytes32,bytes32,bytes,uint16,uint32,uint32,bool)":"f79c02d3","finalize(bytes32,address[],uint256[],uint32[],bytes32)":"cd08b2f0","fundBatch(bytes32,uint256)":"16c9b2bb","getBatch(bytes32)":"ed42136f","getCommit(bytes32,address,uint32)":"f4667b55","getCommitCount(bytes32,address)":"39be3cc8","getCutoff(bytes32)":"fe67517f","getProviderSummary(bytes32,address)":"838f79bf","getSelectedCommitIndex(bytes32,address)":"c3f5167a","join(bytes32)":"ad677d0b","lockRandomness(bytes32)":"ea31f3ca","revealCommits(bytes32,uint32[],bytes32[],bytes32[],bytes[])":"17f2e85b","revealSeed(bytes32,bytes32)":"1408adf3","setAdmin(address)":"704b6c02","usdc()":"3e413bee"},"id":17}