{"abi":[{"type":"function","name":"commit","inputs":[{"name":"poolId","type":"uint256","internalType":"uint256"},{"name":"commitHash","type":"bytes32","internalType":"bytes32"}],"outputs":[],"stateMutability":"nonpayable"},{"type":"function","name":"createPool","inputs":[{"name":"commitDeadline","type":"uint64","internalType":"uint64"},{"name":"revealDeadline","type":"uint64","internalType":"uint64"},{"name":"flightListHash","type":"bytes32","internalType":"bytes32"}],"outputs":[{"name":"poolId","type":"uint256","internalType":"uint256"}],"stateMutability":"payable"},{"type":"function","name":"getPool","inputs":[{"name":"poolId","type":"uint256","internalType":"uint256"}],"outputs":[{"name":"operator","type":"address","internalType":"address"},{"name":"bounty","type":"uint256","internalType":"uint256"},{"name":"commitDeadline","type":"uint64","internalType":"uint64"},{"name":"revealDeadline","type":"uint64","internalType":"uint64"},{"name":"flightListHash","type":"bytes32","internalType":"bytes32"},{"name":"finalized","type":"bool","internalType":"bool"}],"stateMutability":"view"},{"type":"function","name":"nextPoolId","inputs":[],"outputs":[{"name":"","type":"uint256","internalType":"uint256"}],"stateMutability":"view"},{"type":"function","name":"reveal","inputs":[{"name":"poolId","type":"uint256","internalType":"uint256"},{"name":"predictionsHash","type":"bytes32","internalType":"bytes32"},{"name":"salt","type":"bytes32","internalType":"bytes32"}],"outputs":[],"stateMutability":"nonpayable"},{"type":"event","name":"Committed","inputs":[{"name":"poolId","type":"uint256","indexed":false,"internalType":"uint256"},{"name":"provider","type":"address","indexed":false,"internalType":"address"},{"name":"commitHash","type":"bytes32","indexed":false,"internalType":"bytes32"}],"anonymous":false},{"type":"event","name":"PoolCreated","inputs":[{"name":"poolId","type":"uint256","indexed":false,"internalType":"uint256"},{"name":"operator","type":"address","indexed":false,"internalType":"address"},{"name":"bounty","type":"uint256","indexed":false,"internalType":"uint256"}],"anonymous":false},{"type":"event","name":"Revealed","inputs":[{"name":"poolId","type":"uint256","indexed":false,"internalType":"uint256"},{"name":"provider","type":"address","indexed":false,"internalType":"address"},{"name":"predictionsHash","type":"bytes32","indexed":false,"internalType":"bytes32"}],"anonymous":false}],"bytecode":{"object":"0x6080604052348015600e575f5ffd5b506110838061001c5f395ff3fe608060405260043610610049575f3560e01c8063068bcd8d1461004d57806318e561311461008e578063af697a6f146100b8578063bae915e1146100e0578063f2f0387714610110575b5f5ffd5b348015610058575f5ffd5b50610073600480360381019061006e919061085d565b610138565b6040516100859695949392919061092a565b60405180910390f35b348015610099575f5ffd5b506100a26101d7565b6040516100af9190610989565b60405180910390f35b3480156100c3575f5ffd5b506100de60048036038101906100d991906109cc565b6101dc565b005b6100fa60048036038101906100f59190610a46565b6104dd565b6040516101079190610989565b60405180910390f35b34801561011b575f5ffd5b5061013660048036038101906101319190610a96565b6106a7565b005b5f5f5f5f5f5f5f60015f8981526020019081526020015f209050805f015f9054906101000a900473ffffffffffffffffffffffffffffffffffffffff168160010154826002015f9054906101000a900467ffffffffffffffff168360020160089054906101000a900467ffffffffffffffff168460030154856004015f9054906101000a900460ff169650965096509650965096505091939550919395565b5f5481565b5f60015f8581526020019081526020015f209050806002015f9054906101000a900467ffffffffffffffff1667ffffffffffffffff164211610253576040517f08c379a000000000000000000000000000000000000000000000000000000000815260040161024a90610b2e565b60405180910390fd5b8060020160089054906101000a900467ffffffffffffffff1667ffffffffffffffff164211156102b8576040517f08c379a00000000000000000000000000000000000000000000000000000000081526004016102af90610b96565b60405180910390fd5b5f816005015f3373ffffffffffffffffffffffffffffffffffffffff1673ffffffffffffffffffffffffffffffffffffffff1681526020019081526020015f205490505f5f1b810361033f576040517f08c379a000000000000000000000000000000000000000000000000000000000815260040161033690610bfe565b60405180910390fd5b816006015f3373ffffffffffffffffffffffffffffffffffffffff1673ffffffffffffffffffffffffffffffffffffffff1681526020019081526020015f205f9054906101000a900460ff16156103cb576040517f08c379a00000000000000000000000000000000000000000000000000000000081526004016103c290610c66565b60405180910390fd5b5f8533846003015487876040516020016103e9959493929190610d09565b604051602081830303815290604052805190602001209050818114610443576040517f08c379a000000000000000000000000000000000000000000000000000000000815260040161043a90610db1565b60405180910390fd5b6001836006015f3373ffffffffffffffffffffffffffffffffffffffff1673ffffffffffffffffffffffffffffffffffffffff1681526020019081526020015f205f6101000a81548160ff0219169083151502179055507fa3aeba35ff272153458023d09ee88c7eac77d87b62503d27c738e8068edb82048633876040516104cd93929190610dcf565b60405180910390a1505050505050565b5f5f3411610520576040517f08c379a000000000000000000000000000000000000000000000000000000000815260040161051790610e4e565b60405180910390fd5b8267ffffffffffffffff168467ffffffffffffffff1610610576576040517f08c379a000000000000000000000000000000000000000000000000000000000815260040161056d90610eb6565b60405180910390fd5b5f5f81548092919061058790610f01565b9190505590505f60015f8381526020019081526020015f20905033815f015f6101000a81548173ffffffffffffffffffffffffffffffffffffffff021916908373ffffffffffffffffffffffffffffffffffffffff16021790555034816001018190555084816002015f6101000a81548167ffffffffffffffff021916908367ffffffffffffffff160217905550838160020160086101000a81548167ffffffffffffffff021916908367ffffffffffffffff1602179055508281600301819055505f816004015f6101000a81548160ff0219169083151502179055507f8ea7f11ad0ca1b5ddc29b74323cc33342a10c8e5a15b76bd73bd8db01ea449ef82333460405161069793929190610f48565b60405180910390a1509392505050565b5f60015f8481526020019081526020015f209050806002015f9054906101000a900467ffffffffffffffff1667ffffffffffffffff1642111561071f576040517f08c379a000000000000000000000000000000000000000000000000000000000815260040161071690610fc7565b60405180910390fd5b5f5f1b816005015f3373ffffffffffffffffffffffffffffffffffffffff1673ffffffffffffffffffffffffffffffffffffffff1681526020019081526020015f2054146107a2576040517f08c379a00000000000000000000000000000000000000000000000000000000081526004016107999061102f565b60405180910390fd5b81816005015f3373ffffffffffffffffffffffffffffffffffffffff1673ffffffffffffffffffffffffffffffffffffffff1681526020019081526020015f20819055507f26a454697a4923cb3646779d831b5e4696bd3fab14b67dd6dfe23d72354f57dd83338460405161081993929190610dcf565b60405180910390a1505050565b5f5ffd5b5f819050919050565b61083c8161082a565b8114610846575f5ffd5b50565b5f8135905061085781610833565b92915050565b5f6020828403121561087257610871610826565b5b5f61087f84828501610849565b91505092915050565b5f73ffffffffffffffffffffffffffffffffffffffff82169050919050565b5f6108b182610888565b9050919050565b6108c1816108a7565b82525050565b6108d08161082a565b82525050565b5f67ffffffffffffffff82169050919050565b6108f2816108d6565b82525050565b5f819050919050565b61090a816108f8565b82525050565b5f8115159050919050565b61092481610910565b82525050565b5f60c08201905061093d5f8301896108b8565b61094a60208301886108c7565b61095760408301876108e9565b61096460608301866108e9565b6109716080830185610901565b61097e60a083018461091b565b979650505050505050565b5f60208201905061099c5f8301846108c7565b92915050565b6109ab816108f8565b81146109b5575f5ffd5b50565b5f813590506109c6816109a2565b92915050565b5f5f5f606084860312156109e3576109e2610826565b5b5f6109f086828701610849565b9350506020610a01868287016109b8565b9250506040610a12868287016109b8565b9150509250925092565b610a25816108d6565b8114610a2f575f5ffd5b50565b5f81359050610a4081610a1c565b92915050565b5f5f5f60608486031215610a5d57610a5c610826565b5b5f610a6a86828701610a32565b9350506020610a7b86828701610a32565b9250506040610a8c868287016109b8565b9150509250925092565b5f5f60408385031215610aac57610aab610826565b5b5f610ab985828601610849565b9250506020610aca858286016109b8565b9150509250929050565b5f82825260208201905092915050565b7f52657665616c206e6f74207374617274656400000000000000000000000000005f82015250565b5f610b18601283610ad4565b9150610b2382610ae4565b602082019050919050565b5f6020820190508181035f830152610b4581610b0c565b9050919050565b7f52657665616c207068617365206f7665720000000000000000000000000000005f82015250565b5f610b80601183610ad4565b9150610b8b82610b4c565b602082019050919050565b5f6020820190508181035f830152610bad81610b74565b9050919050565b7f4e6f20636f6d6d697400000000000000000000000000000000000000000000005f82015250565b5f610be8600983610ad4565b9150610bf382610bb4565b602082019050919050565b5f6020820190508181035f830152610c1581610bdc565b9050919050565b7f416c72656164792072657665616c6564000000000000000000000000000000005f82015250565b5f610c50601083610ad4565b9150610c5b82610c1c565b602082019050919050565b5f6020820190508181035f830152610c7d81610c44565b9050919050565b5f819050919050565b610c9e610c998261082a565b610c84565b82525050565b5f8160601b9050919050565b5f610cba82610ca4565b9050919050565b5f610ccb82610cb0565b9050919050565b610ce3610cde826108a7565b610cc1565b82525050565b5f819050919050565b610d03610cfe826108f8565b610ce9565b82525050565b5f610d148288610c8d565b602082019150610d248287610cd2565b601482019150610d348286610cf2565b602082019150610d448285610cf2565b602082019150610d548284610cf2565b6020820191508190509695505050505050565b7f4261642072657665616c000000000000000000000000000000000000000000005f82015250565b5f610d9b600a83610ad4565b9150610da682610d67565b602082019050919050565b5f6020820190508181035f830152610dc881610d8f565b9050919050565b5f606082019050610de25f8301866108c7565b610def60208301856108b8565b610dfc6040830184610901565b949350505050565b7f426f756e747920726571756972656400000000000000000000000000000000005f82015250565b5f610e38600f83610ad4565b9150610e4382610e04565b602082019050919050565b5f6020820190508181035f830152610e6581610e2c565b9050919050565b7f42616420646561646c696e6573000000000000000000000000000000000000005f82015250565b5f610ea0600d83610ad4565b9150610eab82610e6c565b602082019050919050565b5f6020820190508181035f830152610ecd81610e94565b9050919050565b7f4e487b71000000000000000000000000000000000000000000000000000000005f52601160045260245ffd5b5f610f0b8261082a565b91507fffffffffffffffffffffffffffffffffffffffffffffffffffffffffffffffff8203610f3d57610f3c610ed4565b5b600182019050919050565b5f606082019050610f5b5f8301866108c7565b610f6860208301856108b8565b610f7560408301846108c7565b949350505050565b7f436f6d6d6974207068617365206f7665720000000000000000000000000000005f82015250565b5f610fb1601183610ad4565b9150610fbc82610f7d565b602082019050919050565b5f6020820190508181035f830152610fde81610fa5565b9050919050565b7f416c726561647920636f6d6d69747465640000000000000000000000000000005f82015250565b5f611019601183610ad4565b915061102482610fe5565b602082019050919050565b5f6020820190508181035f8301526110468161100d565b905091905056fea2646970667358221220fa5f2f0d666f9818c3e4c168b598170e070556d163ba73b048d1ede5f3b921b064736f6c634300081e0033","linkReferences":{}},"methodIdentifiers":{"commit(uint256,bytes32)":"f2f03877","createPool(uint64,uint64,bytes32)":"bae915e1","getPool(uint256)":"068bcd8d","nextPoolId()":"18e56131","reveal(uint256,bytes32,bytes32)":"af697a6f"},"id":16}