{"abi":[{"type":"function","name":"commit","inputs":[{"name":"poolId","type":"uint256","internalType":"uint256"},{"name":"commitHash","type":"bytes32","internalType":"bytes32"}],"outputs":[],"stateMutability":"nonpayable"},{"type":"function","name":"createPool","inputs":[{"name":"commitDeadline","type":"uint64","internalType":"uint64"},{"name":"revealDeadline","type":"uint64","internalType":"uint64"},{"name":"flightListHash","type":"bytes32","internalType":"bytes32"}],"outputs":[{"name":"poolId","type":"uint256","internalType":"uint256"}],"stateMutability":"payable"},{"type":"function","name":"getPool","inputs":[{"name":"poolId","type":"uint256","internalType":"uint256"}],"outputs":[{"name":"operator","type":"address","internalType":"address"},{"name":"bounty","type":"uint256","internalType":"uint256"},{"name":"commitDeadline","type":"uint64","internalType":"uint64"},{"name":"revealDeadline","type":"uint64","internalType":"uint64"},{"name":"flightListHash","type":"bytes32","internalType":"bytes32"},{"name":"finalized","type":"bool","internalType":"bool"}],"stateMutability":"view"},{"type":"function","name":"nextPoolId","inputs":[],"outputs":[{"name":"","type":"uint256","internalType":"uint256"}],"stateMutability":"view"},{"type":"event","name":"Committed","inputs":[{"name":"poolId","type":"uint256","indexed":false,"internalType":"uint256"},{"name":"provider","type":"address","indexed":false,"internalType":"address"},{"name":"commitHash","type":"bytes32","indexed":false,"internalType":"bytes32"}],"anonymous":false},{"type":"event","name":"PoolCreated","inputs":[{"name":"poolId","type":"uint256","indexed":false,"internalType":"uint256"},{"name":"operator","type":"address","indexed":false,"internalType":"address"},{"name":"bounty","type":"uint256","indexed":false,"internalType":"uint256"}],"anonymous":false}],"bytecode":{"object":"0x6080604052348015600e575f5ffd5b50610a148061001c5f395ff3fe60806040526004361061003e575f3560e01c8063068bcd8d1461004257806318e5613114610083578063bae915e1146100ad578063f2f03877146100dd575b5f5ffd5b34801561004d575f5ffd5b5061006860048036038101906100639190610529565b610105565b60405161007a969594939291906105f6565b60405180910390f35b34801561008e575f5ffd5b506100976101a4565b6040516100a49190610655565b60405180910390f35b6100c760048036038101906100c291906106c2565b6101a9565b6040516100d49190610655565b60405180910390f35b3480156100e8575f5ffd5b5061010360048036038101906100fe9190610712565b610373565b005b5f5f5f5f5f5f5f60015f8981526020019081526020015f209050805f015f9054906101000a900473ffffffffffffffffffffffffffffffffffffffff168160010154826002015f9054906101000a900467ffffffffffffffff168360020160089054906101000a900467ffffffffffffffff168460030154856004015f9054906101000a900460ff169650965096509650965096505091939550919395565b5f5481565b5f5f34116101ec576040517f08c379a00000000000000000000000000000000000000000000000000000000081526004016101e3906107aa565b60405180910390fd5b8267ffffffffffffffff168467ffffffffffffffff1610610242576040517f08c379a000000000000000000000000000000000000000000000000000000000815260040161023990610812565b60405180910390fd5b5f5f8154809291906102539061085d565b9190505590505f60015f8381526020019081526020015f20905033815f015f6101000a81548173ffffffffffffffffffffffffffffffffffffffff021916908373ffffffffffffffffffffffffffffffffffffffff16021790555034816001018190555084816002015f6101000a81548167ffffffffffffffff021916908367ffffffffffffffff160217905550838160020160086101000a81548167ffffffffffffffff021916908367ffffffffffffffff1602179055508281600301819055505f816004015f6101000a81548160ff0219169083151502179055507f8ea7f11ad0ca1b5ddc29b74323cc33342a10c8e5a15b76bd73bd8db01ea449ef823334604051610363939291906108a4565b60405180910390a1509392505050565b5f60015f8481526020019081526020015f209050806002015f9054906101000a900467ffffffffffffffff1667ffffffffffffffff164211156103eb576040517f08c379a00000000000000000000000000000000000000000000000000000000081526004016103e290610923565b60405180910390fd5b5f5f1b816005015f3373ffffffffffffffffffffffffffffffffffffffff1673ffffffffffffffffffffffffffffffffffffffff1681526020019081526020015f20541461046e576040517f08c379a00000000000000000000000000000000000000000000000000000000081526004016104659061098b565b60405180910390fd5b81816005015f3373ffffffffffffffffffffffffffffffffffffffff1673ffffffffffffffffffffffffffffffffffffffff1681526020019081526020015f20819055507f26a454697a4923cb3646779d831b5e4696bd3fab14b67dd6dfe23d72354f57dd8333846040516104e5939291906109a9565b60405180910390a1505050565b5f5ffd5b5f819050919050565b610508816104f6565b8114610512575f5ffd5b50565b5f81359050610523816104ff565b92915050565b5f6020828403121561053e5761053d6104f2565b5b5f61054b84828501610515565b91505092915050565b5f73ffffffffffffffffffffffffffffffffffffffff82169050919050565b5f61057d82610554565b9050919050565b61058d81610573565b82525050565b61059c816104f6565b82525050565b5f67ffffffffffffffff82169050919050565b6105be816105a2565b82525050565b5f819050919050565b6105d6816105c4565b82525050565b5f8115159050919050565b6105f0816105dc565b82525050565b5f60c0820190506106095f830189610584565b6106166020830188610593565b61062360408301876105b5565b61063060608301866105b5565b61063d60808301856105cd565b61064a60a08301846105e7565b979650505050505050565b5f6020820190506106685f830184610593565b92915050565b610677816105a2565b8114610681575f5ffd5b50565b5f813590506106928161066e565b92915050565b6106a1816105c4565b81146106ab575f5ffd5b50565b5f813590506106bc81610698565b92915050565b5f5f5f606084860312156106d9576106d86104f2565b5b5f6106e686828701610684565b93505060206106f786828701610684565b9250506040610708868287016106ae565b9150509250925092565b5f5f60408385031215610728576107276104f2565b5b5f61073585828601610515565b9250506020610746858286016106ae565b9150509250929050565b5f82825260208201905092915050565b7f426f756e747920726571756972656400000000000000000000000000000000005f82015250565b5f610794600f83610750565b915061079f82610760565b602082019050919050565b5f6020820190508181035f8301526107c181610788565b9050919050565b7f42616420646561646c696e6573000000000000000000000000000000000000005f82015250565b5f6107fc600d83610750565b9150610807826107c8565b602082019050919050565b5f6020820190508181035f830152610829816107f0565b9050919050565b7f4e487b71000000000000000000000000000000000000000000000000000000005f52601160045260245ffd5b5f610867826104f6565b91507fffffffffffffffffffffffffffffffffffffffffffffffffffffffffffffffff820361089957610898610830565b5b600182019050919050565b5f6060820190506108b75f830186610593565b6108c46020830185610584565b6108d16040830184610593565b949350505050565b7f436f6d6d6974207068617365206f7665720000000000000000000000000000005f82015250565b5f61090d601183610750565b9150610918826108d9565b602082019050919050565b5f6020820190508181035f83015261093a81610901565b9050919050565b7f416c726561647920636f6d6d69747465640000000000000000000000000000005f82015250565b5f610975601183610750565b915061098082610941565b602082019050919050565b5f6020820190508181035f8301526109a281610969565b9050919050565b5f6060820190506109bc5f830186610593565b6109c96020830185610584565b6109d660408301846105cd565b94935050505056fea26469706673582212201c24a1b258e03ce67d7979d0cb32ac56cc95b53e064209318ecca9b910db82db64736f6c634300081e0033","linkReferences":{}},"methodIdentifiers":{"commit(uint256,bytes32)":"f2f03877","createPool(uint64,uint64,bytes32)":"bae915e1","getPool(uint256)":"068bcd8d","nextPoolId()":"18e56131"},"id":16}