{"abi":[{"type":"function","name":"claim","inputs":[{"name":"poolId","type":"uint256","internalType":"uint256"}],"outputs":[],"stateMutability":"nonpayable"},{"type":"function","name":"commit","inputs":[{"name":"poolId","type":"uint256","internalType":"uint256"},{"name":"commitHash","type":"bytes32","internalType":"bytes32"}],"outputs":[],"stateMutability":"nonpayable"},{"type":"function","name":"createPool","inputs":[{"name":"commitDeadline","type":"uint64","internalType":"uint64"},{"name":"revealDeadline","type":"uint64","internalType":"uint64"},{"name":"flightListHash","type":"bytes32","internalType":"bytes32"}],"outputs":[{"name":"poolId","type":"uint256","internalType":"uint256"}],"stateMutability":"payable"},{"type":"function","name":"finalize","inputs":[{"name":"poolId","type":"uint256","internalType":"uint256"},{"name":"providers","type":"address[]","internalType":"address[]"},{"name":"scoreE6","type":"uint256[]","internalType":"uint256[]"}],"outputs":[],"stateMutability":"nonpayable"},{"type":"function","name":"getPool","inputs":[{"name":"poolId","type":"uint256","internalType":"uint256"}],"outputs":[{"name":"operator","type":"address","internalType":"address"},{"name":"bounty","type":"uint256","internalType":"uint256"},{"name":"commitDeadline","type":"uint64","internalType":"uint64"},{"name":"revealDeadline","type":"uint64","internalType":"uint64"},{"name":"flightListHash","type":"bytes32","internalType":"bytes32"},{"name":"finalized","type":"bool","internalType":"bool"}],"stateMutability":"view"},{"type":"function","name":"getProvider","inputs":[{"name":"poolId","type":"uint256","internalType":"uint256"},{"name":"provider","type":"address","internalType":"address"}],"outputs":[{"name":"revealed","type":"bool","internalType":"bool"},{"name":"payoutWei","type":"uint256","internalType":"uint256"},{"name":"claimed","type":"bool","internalType":"bool"}],"stateMutability":"view"},{"type":"function","name":"nextPoolId","inputs":[],"outputs":[{"name":"","type":"uint256","internalType":"uint256"}],"stateMutability":"view"},{"type":"function","name":"reveal","inputs":[{"name":"poolId","type":"uint256","internalType":"uint256"},{"name":"predictionsHash","type":"bytes32","internalType":"bytes32"},{"name":"salt","type":"bytes32","internalType":"bytes32"}],"outputs":[],"stateMutability":"nonpayable"},{"type":"event","name":"Claimed","inputs":[{"name":"poolId","type":"uint256","indexed":false,"internalType":"uint256"},{"name":"provider","type":"address","indexed":false,"internalType":"address"},{"name":"amount","type":"uint256","indexed":false,"internalType":"uint256"}],"anonymous":false},{"type":"event","name":"Committed","inputs":[{"name":"poolId","type":"uint256","indexed":false,"internalType":"uint256"},{"name":"provider","type":"address","indexed":false,"internalType":"address"},{"name":"commitHash","type":"bytes32","indexed":false,"internalType":"bytes32"}],"anonymous":false},{"type":"event","name":"Finalized","inputs":[{"name":"poolId","type":"uint256","indexed":false,"internalType":"uint256"}],"anonymous":false},{"type":"event","name":"PoolCreated","inputs":[{"name":"poolId","type":"uint256","indexed":false,"internalType":"uint256"},{"name":"operator","type":"address","indexed":false,"internalType":"address"},{"name":"bounty","type":"uint256","indexed":false,"internalType":"uint256"}],"anonymous":false},{"type":"event","name":"Revealed","inputs":[{"name":"poolId","type":"uint256","indexed":false,"internalType":"uint256"},{"name":"provider","type":"address","indexed":false,"internalType":"address"},{"name":"predictionsHash","type":"bytes32","indexed":false,"internalType":"bytes32"}],"anonymous":false}],"bytecode":{"object":"0x6080604052348015600e575f5ffd5b5061211a8061001c5f395ff3fe60806040526004361061007a575f3560e01c8063af697a6f1161004d578063af697a6f14610139578063b216bceb14610161578063bae915e11461019f578063f2f03877146101cf5761007a565b8063068bcd8d1461007e57806318e56131146100bf578063379607f5146100e95780638ca4755014610111575b5f5ffd5b348015610089575f5ffd5b506100a4600480360381019061009f919061112e565b6101f7565b6040516100b6969594939291906111fb565b60405180910390f35b3480156100ca575f5ffd5b506100d3610296565b6040516100e0919061125a565b60405180910390f35b3480156100f4575f5ffd5b5061010f600480360381019061010a919061112e565b61029b565b005b34801561011c575f5ffd5b5061013760048036038101906101329190611329565b610550565b005b348015610144575f5ffd5b5061015f600480360381019061015a91906113e4565b6109ac565b005b34801561016c575f5ffd5b506101876004803603810190610182919061145e565b610cad565b6040516101969392919061149c565b60405180910390f35b6101b960048036038101906101b491906114fb565b610daa565b6040516101c6919061125a565b60405180910390f35b3480156101da575f5ffd5b506101f560048036038101906101f0919061154b565b610f74565b005b5f5f5f5f5f5f5f60015f8981526020019081526020015f209050805f015f9054906101000a900473ffffffffffffffffffffffffffffffffffffffff168160010154826002015f9054906101000a900467ffffffffffffffff168360020160089054906101000a900467ffffffffffffffff168460030154856004015f9054906101000a900460ff169650965096509650965096505091939550919395565b5f5481565b5f60015f8381526020019081526020015f209050806004015f9054906101000a900460ff166102ff576040517f08c379a00000000000000000000000000000000000000000000000000000000081526004016102f6906115e3565b60405180910390fd5b806008015f3373ffffffffffffffffffffffffffffffffffffffff1673ffffffffffffffffffffffffffffffffffffffff1681526020019081526020015f205f9054906101000a900460ff161561038b576040517f08c379a00000000000000000000000000000000000000000000000000000000081526004016103829061164b565b60405180910390fd5b5f816007015f3373ffffffffffffffffffffffffffffffffffffffff1673ffffffffffffffffffffffffffffffffffffffff1681526020019081526020015f205490505f8111610410576040517f08c379a0000000000000000000000000000000000000000000000000000000008152600401610407906116b3565b60405180910390fd5b6001826008015f3373ffffffffffffffffffffffffffffffffffffffff1673ffffffffffffffffffffffffffffffffffffffff1681526020019081526020015f205f6101000a81548160ff0219169083151502179055505f3373ffffffffffffffffffffffffffffffffffffffff168260405161048c906116fe565b5f6040518083038185875af1925050503d805f81146104c6576040519150601f19603f3d011682016040523d82523d5f602084013e6104cb565b606091505b505090508061050f576040517f08c379a00000000000000000000000000000000000000000000000000000000081526004016105069061175c565b60405180910390fd5b7f4ec90e965519d92681267467f775ada5bd214aa92c0dc93d90a5e880ce9ed0268433846040516105429392919061177a565b60405180910390a150505050565b8460015f8281526020019081526020015f205f015f9054906101000a900473ffffffffffffffffffffffffffffffffffffffff1673ffffffffffffffffffffffffffffffffffffffff163373ffffffffffffffffffffffffffffffffffffffff16146105f1576040517f08c379a00000000000000000000000000000000000000000000000000000000081526004016105e8906117f9565b60405180910390fd5b5f60015f8881526020019081526020015f209050806004015f9054906101000a900460ff1615610656576040517f08c379a000000000000000000000000000000000000000000000000000000000815260040161064d90611861565b60405180910390fd5b8060020160089054906101000a900467ffffffffffffffff1667ffffffffffffffff1642116106ba576040517f08c379a00000000000000000000000000000000000000000000000000000000081526004016106b1906118c9565b60405180910390fd5b838390508686905014610702576040517f08c379a00000000000000000000000000000000000000000000000000000000081526004016106f990611931565b60405180910390fd5b5f8686905011610747576040517f08c379a000000000000000000000000000000000000000000000000000000000815260040161073e90611999565b60405180910390fd5b5f5f90505f5f90505b87879050811015610846575f88888381811061076f5761076e6119b7565b5b905060200201602081019061078491906119e4565b9050836006015f8273ffffffffffffffffffffffffffffffffffffffff1673ffffffffffffffffffffffffffffffffffffffff1681526020019081526020015f205f9054906101000a900460ff16610811576040517f08c379a000000000000000000000000000000000000000000000000000000000815260040161080890611a59565b60405180910390fd5b868683818110610824576108236119b7565b5b90506020020135836108369190611aa4565b9250508080600101915050610750565b505f8111610889576040517f08c379a000000000000000000000000000000000000000000000000000000000815260040161088090611b21565b60405180910390fd5b5f5f90505b8787905081101561094e575f8888838181106108ad576108ac6119b7565b5b90506020020160208101906108c291906119e4565b90505f838888858181106108d9576108d86119b7565b5b9050602002013586600101546108ef9190611b3f565b6108f99190611bad565b905080856007015f8473ffffffffffffffffffffffffffffffffffffffff1673ffffffffffffffffffffffffffffffffffffffff1681526020019081526020015f20819055505050808060010191505061088e565b506001826004015f6101000a81548160ff0219169083151502179055507f839cf22e1ba87ce2f5b9bbf46cf0175a09eed52febdfaac8852478e68203c7638860405161099a919061125a565b60405180910390a15050505050505050565b5f60015f8581526020019081526020015f209050806002015f9054906101000a900467ffffffffffffffff1667ffffffffffffffff164211610a23576040517f08c379a0000000000000000000000000000000000000000000000000000000008152600401610a1a90611c27565b60405180910390fd5b8060020160089054906101000a900467ffffffffffffffff1667ffffffffffffffff16421115610a88576040517f08c379a0000000000000000000000000000000000000000000000000000000008152600401610a7f90611c8f565b60405180910390fd5b5f816005015f3373ffffffffffffffffffffffffffffffffffffffff1673ffffffffffffffffffffffffffffffffffffffff1681526020019081526020015f205490505f5f1b8103610b0f576040517f08c379a0000000000000000000000000000000000000000000000000000000008152600401610b0690611cf7565b60405180910390fd5b816006015f3373ffffffffffffffffffffffffffffffffffffffff1673ffffffffffffffffffffffffffffffffffffffff1681526020019081526020015f205f9054906101000a900460ff1615610b9b576040517f08c379a0000000000000000000000000000000000000000000000000000000008152600401610b9290611d5f565b60405180910390fd5b5f853384600301548787604051602001610bb9959493929190611e02565b604051602081830303815290604052805190602001209050818114610c13576040517f08c379a0000000000000000000000000000000000000000000000000000000008152600401610c0a90611eaa565b60405180910390fd5b6001836006015f3373ffffffffffffffffffffffffffffffffffffffff1673ffffffffffffffffffffffffffffffffffffffff1681526020019081526020015f205f6101000a81548160ff0219169083151502179055507fa3aeba35ff272153458023d09ee88c7eac77d87b62503d27c738e8068edb8204863387604051610c9d93929190611ec8565b60405180910390a1505050505050565b5f5f5f5f60015f8781526020019081526020015f209050806006015f8673ffffffffffffffffffffffffffffffffffffffff1673ffffffffffffffffffffffffffffffffffffffff1681526020019081526020015f205f9054906101000a900460ff16816007015f8773ffffffffffffffffffffffffffffffffffffffff1673ffffffffffffffffffffffffffffffffffffffff1681526020019081526020015f2054826008015f8873ffffffffffffffffffffffffffffffffffffffff1673ffffffffffffffffffffffffffffffffffffffff1681526020019081526020015f205f9054906101000a900460ff16935093509350509250925092565b5f5f3411610ded576040517f08c379a0000000000000000000000000000000000000000000000000000000008152600401610de490611f47565b60405180910390fd5b8267ffffffffffffffff168467ffffffffffffffff1610610e43576040517f08c379a0000000000000000000000000000000000000000000000000000000008152600401610e3a90611faf565b60405180910390fd5b5f5f815480929190610e5490611fcd565b9190505590505f60015f8381526020019081526020015f20905033815f015f6101000a81548173ffffffffffffffffffffffffffffffffffffffff021916908373ffffffffffffffffffffffffffffffffffffffff16021790555034816001018190555084816002015f6101000a81548167ffffffffffffffff021916908367ffffffffffffffff160217905550838160020160086101000a81548167ffffffffffffffff021916908367ffffffffffffffff1602179055508281600301819055505f816004015f6101000a81548160ff0219169083151502179055507f8ea7f11ad0ca1b5ddc29b74323cc33342a10c8e5a15b76bd73bd8db01ea449ef823334604051610f649392919061177a565b60405180910390a1509392505050565b5f60015f8481526020019081526020015f209050806002015f9054906101000a900467ffffffffffffffff1667ffffffffffffffff16421115610fec576040517f08c379a0000000000000000000000000000000000000000000000000000000008152600401610fe39061205e565b60405180910390fd5b5f5f1b816005015f3373ffffffffffffffffffffffffffffffffffffffff1673ffffffffffffffffffffffffffffffffffffffff1681526020019081526020015f20541461106f576040517f08c379a0000000000000000000000000000000000000000000000000000000008152600401611066906120c6565b60405180910390fd5b81816005015f3373ffffffffffffffffffffffffffffffffffffffff1673ffffffffffffffffffffffffffffffffffffffff1681526020019081526020015f20819055507f26a454697a4923cb3646779d831b5e4696bd3fab14b67dd6dfe23d72354f57dd8333846040516110e693929190611ec8565b60405180910390a1505050565b5f5ffd5b5f5ffd5b5f819050919050565b61110d816110fb565b8114611117575f5ffd5b50565b5f8135905061112881611104565b92915050565b5f60208284031215611143576111426110f3565b5b5f6111508482850161111a565b91505092915050565b5f73ffffffffffffffffffffffffffffffffffffffff82169050919050565b5f61118282611159565b9050919050565b61119281611178565b82525050565b6111a1816110fb565b82525050565b5f67ffffffffffffffff82169050919050565b6111c3816111a7565b82525050565b5f819050919050565b6111db816111c9565b82525050565b5f8115159050919050565b6111f5816111e1565b82525050565b5f60c08201905061120e5f830189611189565b61121b6020830188611198565b61122860408301876111ba565b61123560608301866111ba565b61124260808301856111d2565b61124f60a08301846111ec565b979650505050505050565b5f60208201905061126d5f830184611198565b92915050565b5f5ffd5b5f5ffd5b5f5ffd5b5f5f83601f84011261129457611293611273565b5b8235905067ffffffffffffffff8111156112b1576112b0611277565b5b6020830191508360208202830111156112cd576112cc61127b565b5b9250929050565b5f5f83601f8401126112e9576112e8611273565b5b8235905067ffffffffffffffff81111561130657611305611277565b5b6020830191508360208202830111156113225761132161127b565b5b9250929050565b5f5f5f5f5f60608688031215611342576113416110f3565b5b5f61134f8882890161111a565b955050602086013567ffffffffffffffff8111156113705761136f6110f7565b5b61137c8882890161127f565b9450945050604086013567ffffffffffffffff81111561139f5761139e6110f7565b5b6113ab888289016112d4565b92509250509295509295909350565b6113c3816111c9565b81146113cd575f5ffd5b50565b5f813590506113de816113ba565b92915050565b5f5f5f606084860312156113fb576113fa6110f3565b5b5f6114088682870161111a565b9350506020611419868287016113d0565b925050604061142a868287016113d0565b9150509250925092565b61143d81611178565b8114611447575f5ffd5b50565b5f8135905061145881611434565b92915050565b5f5f60408385031215611474576114736110f3565b5b5f6114818582860161111a565b92505060206114928582860161144a565b9150509250929050565b5f6060820190506114af5f8301866111ec565b6114bc6020830185611198565b6114c960408301846111ec565b949350505050565b6114da816111a7565b81146114e4575f5ffd5b50565b5f813590506114f5816114d1565b92915050565b5f5f5f60608486031215611512576115116110f3565b5b5f61151f868287016114e7565b9350506020611530868287016114e7565b9250506040611541868287016113d0565b9150509250925092565b5f5f60408385031215611561576115606110f3565b5b5f61156e8582860161111a565b925050602061157f858286016113d0565b9150509250929050565b5f82825260208201905092915050565b7f4e6f742066696e616c697a6564000000000000000000000000000000000000005f82015250565b5f6115cd600d83611589565b91506115d882611599565b602082019050919050565b5f6020820190508181035f8301526115fa816115c1565b9050919050565b7f416c726561647920636c61696d656400000000000000000000000000000000005f82015250565b5f611635600f83611589565b915061164082611601565b602082019050919050565b5f6020820190508181035f83015261166281611629565b9050919050565b7f4e6f207061796f757400000000000000000000000000000000000000000000005f82015250565b5f61169d600983611589565b91506116a882611669565b602082019050919050565b5f6020820190508181035f8301526116ca81611691565b9050919050565b5f81905092915050565b50565b5f6116e95f836116d1565b91506116f4826116db565b5f82019050919050565b5f611708826116de565b9150819050919050565b7f5472616e73666572206661696c656400000000000000000000000000000000005f82015250565b5f611746600f83611589565b915061175182611712565b602082019050919050565b5f6020820190508181035f8301526117738161173a565b9050919050565b5f60608201905061178d5f830186611198565b61179a6020830185611189565b6117a76040830184611198565b949350505050565b7f4e6f74206f70657261746f7200000000000000000000000000000000000000005f82015250565b5f6117e3600c83611589565b91506117ee826117af565b602082019050919050565b5f6020820190508181035f830152611810816117d7565b9050919050565b7f416c72656164792066696e616c697a65640000000000000000000000000000005f82015250565b5f61184b601183611589565b915061185682611817565b602082019050919050565b5f6020820190508181035f8301526118788161183f565b9050919050565b7f546f6f206561726c7900000000000000000000000000000000000000000000005f82015250565b5f6118b3600983611589565b91506118be8261187f565b602082019050919050565b5f6020820190508181035f8301526118e0816118a7565b9050919050565b7f4c656e677468206d69736d6174636800000000000000000000000000000000005f82015250565b5f61191b600f83611589565b9150611926826118e7565b602082019050919050565b5f6020820190508181035f8301526119488161190f565b9050919050565b7f4e6f2070726f76696465727300000000000000000000000000000000000000005f82015250565b5f611983600c83611589565b915061198e8261194f565b602082019050919050565b5f6020820190508181035f8301526119b081611977565b9050919050565b7f4e487b71000000000000000000000000000000000000000000000000000000005f52603260045260245ffd5b5f602082840312156119f9576119f86110f3565b5b5f611a068482850161144a565b91505092915050565b7f50726f7669646572206e6f742072657665616c656400000000000000000000005f82015250565b5f611a43601583611589565b9150611a4e82611a0f565b602082019050919050565b5f6020820190508181035f830152611a7081611a37565b9050919050565b7f4e487b71000000000000000000000000000000000000000000000000000000005f52601160045260245ffd5b5f611aae826110fb565b9150611ab9836110fb565b9250828201905080821115611ad157611ad0611a77565b5b92915050565b7f5a65726f207765696768747300000000000000000000000000000000000000005f82015250565b5f611b0b600c83611589565b9150611b1682611ad7565b602082019050919050565b5f6020820190508181035f830152611b3881611aff565b9050919050565b5f611b49826110fb565b9150611b54836110fb565b9250828202611b62816110fb565b91508282048414831517611b7957611b78611a77565b5b5092915050565b7f4e487b71000000000000000000000000000000000000000000000000000000005f52601260045260245ffd5b5f611bb7826110fb565b9150611bc2836110fb565b925082611bd257611bd1611b80565b5b828204905092915050565b7f52657665616c206e6f74207374617274656400000000000000000000000000005f82015250565b5f611c11601283611589565b9150611c1c82611bdd565b602082019050919050565b5f6020820190508181035f830152611c3e81611c05565b9050919050565b7f52657665616c207068617365206f7665720000000000000000000000000000005f82015250565b5f611c79601183611589565b9150611c8482611c45565b602082019050919050565b5f6020820190508181035f830152611ca681611c6d565b9050919050565b7f4e6f20636f6d6d697400000000000000000000000000000000000000000000005f82015250565b5f611ce1600983611589565b9150611cec82611cad565b602082019050919050565b5f6020820190508181035f830152611d0e81611cd5565b9050919050565b7f416c72656164792072657665616c6564000000000000000000000000000000005f82015250565b5f611d49601083611589565b9150611d5482611d15565b602082019050919050565b5f6020820190508181035f830152611d7681611d3d565b9050919050565b5f819050919050565b611d97611d92826110fb565b611d7d565b82525050565b5f8160601b9050919050565b5f611db382611d9d565b9050919050565b5f611dc482611da9565b9050919050565b611ddc611dd782611178565b611dba565b82525050565b5f819050919050565b611dfc611df7826111c9565b611de2565b82525050565b5f611e0d8288611d86565b602082019150611e1d8287611dcb565b601482019150611e2d8286611deb565b602082019150611e3d8285611deb565b602082019150611e4d8284611deb565b6020820191508190509695505050505050565b7f4261642072657665616c000000000000000000000000000000000000000000005f82015250565b5f611e94600a83611589565b9150611e9f82611e60565b602082019050919050565b5f6020820190508181035f830152611ec181611e88565b9050919050565b5f606082019050611edb5f830186611198565b611ee86020830185611189565b611ef560408301846111d2565b949350505050565b7f426f756e747920726571756972656400000000000000000000000000000000005f82015250565b5f611f31600f83611589565b9150611f3c82611efd565b602082019050919050565b5f6020820190508181035f830152611f5e81611f25565b9050919050565b7f42616420646561646c696e6573000000000000000000000000000000000000005f82015250565b5f611f99600d83611589565b9150611fa482611f65565b602082019050919050565b5f6020820190508181035f830152611fc681611f8d565b9050919050565b5f611fd7826110fb565b91507fffffffffffffffffffffffffffffffffffffffffffffffffffffffffffffffff820361200957612008611a77565b5b600182019050919050565b7f436f6d6d6974207068617365206f7665720000000000000000000000000000005f82015250565b5f612048601183611589565b915061205382612014565b602082019050919050565b5f6020820190508181035f8301526120758161203c565b9050919050565b7f416c726561647920636f6d6d69747465640000000000000000000000000000005f82015250565b5f6120b0601183611589565b91506120bb8261207c565b602082019050919050565b5f6020820190508181035f8301526120dd816120a4565b905091905056fea264697066735822122070cf04ee138889f5c38b76c2dee20fc807e4a2e12f5f7ce1d2266a8669c3940964736f6c634300081e0033","linkReferences":{}},"methodIdentifiers":{"claim(uint256)":"379607f5","commit(uint256,bytes32)":"f2f03877","createPool(uint64,uint64,bytes32)":"bae915e1","finalize(uint256,address[],uint256[])":"8ca47550","getPool(uint256)":"068bcd8d","getProvider(uint256,address)":"b216bceb","nextPoolId()":"18e56131","reveal(uint256,bytes32,bytes32)":"af697a6f"},"id":16}