{"abi":[{"type":"function","name":"createPool","inputs":[{"name":"commitDeadline","type":"uint64","internalType":"uint64"},{"name":"revealDeadline","type":"uint64","internalType":"uint64"},{"name":"flightListHash","type":"bytes32","internalType":"bytes32"}],"outputs":[{"name":"poolId","type":"uint256","internalType":"uint256"}],"stateMutability":"payable"},{"type":"function","name":"nextPoolId","inputs":[],"outputs":[{"name":"","type":"uint256","internalType":"uint256"}],"stateMutability":"view"},{"type":"function","name":"pools","inputs":[{"name":"","type":"uint256","internalType":"uint256"}],"outputs":[{"name":"operator","type":"address","internalType":"address"},{"name":"bounty","type":"uint256","internalType":"uint256"},{"name":"commitDeadline","type":"uint64","internalType":"uint64"},{"name":"revealDeadline","type":"uint64","internalType":"uint64"},{"name":"flightListHash","type":"bytes32","internalType":"bytes32"},{"name":"finalized","type":"bool","internalType":"bool"}],"stateMutability":"view"},{"type":"event","name":"PoolCreated","inputs":[{"name":"poolId","type":"uint256","indexed":false,"internalType":"uint256"},{"name":"operator","type":"address","indexed":false,"internalType":"address"},{"name":"bounty","type":"uint256","indexed":false,"internalType":"uint256"}],"anonymous":false}],"bytecode":{"object":"0x6080604052348015600e575f5ffd5b506107738061001c5f395ff3fe608060405260043610610033575f3560e01c806318e5613114610037578063ac4afa3814610061578063bae915e1146100a2575b5f5ffd5b348015610042575f5ffd5b5061004b6100d2565b60405161005891906103ac565b60405180910390f35b34801561006c575f5ffd5b50610087600480360381019061008291906103f3565b6100d7565b604051610099969594939291906104b1565b60405180910390f35b6100bc60048036038101906100b79190610564565b610161565b6040516100c991906103ac565b60405180910390f35b5f5481565b6001602052805f5260405f205f91509050805f015f9054906101000a900473ffffffffffffffffffffffffffffffffffffffff1690806001015490806002015f9054906101000a900467ffffffffffffffff16908060020160089054906101000a900467ffffffffffffffff1690806003015490806004015f9054906101000a900460ff16905086565b5f5f34116101a4576040517f08c379a000000000000000000000000000000000000000000000000000000000815260040161019b9061060e565b60405180910390fd5b8267ffffffffffffffff168467ffffffffffffffff16106101fa576040517f08c379a00000000000000000000000000000000000000000000000000000000081526004016101f190610676565b60405180910390fd5b5f5f81548092919061020b906106c1565b9190505590506040518060c001604052803373ffffffffffffffffffffffffffffffffffffffff1681526020013481526020018567ffffffffffffffff1681526020018467ffffffffffffffff1681526020018381526020015f151581525060015f8381526020019081526020015f205f820151815f015f6101000a81548173ffffffffffffffffffffffffffffffffffffffff021916908373ffffffffffffffffffffffffffffffffffffffff160217905550602082015181600101556040820151816002015f6101000a81548167ffffffffffffffff021916908367ffffffffffffffff16021790555060608201518160020160086101000a81548167ffffffffffffffff021916908367ffffffffffffffff1602179055506080820151816003015560a0820151816004015f6101000a81548160ff0219169083151502179055509050507f8ea7f11ad0ca1b5ddc29b74323cc33342a10c8e5a15b76bd73bd8db01ea449ef81333460405161038593929190610708565b60405180910390a19392505050565b5f819050919050565b6103a681610394565b82525050565b5f6020820190506103bf5f83018461039d565b92915050565b5f5ffd5b6103d281610394565b81146103dc575f5ffd5b50565b5f813590506103ed816103c9565b92915050565b5f60208284031215610408576104076103c5565b5b5f610415848285016103df565b91505092915050565b5f73ffffffffffffffffffffffffffffffffffffffff82169050919050565b5f6104478261041e565b9050919050565b6104578161043d565b82525050565b5f67ffffffffffffffff82169050919050565b6104798161045d565b82525050565b5f819050919050565b6104918161047f565b82525050565b5f8115159050919050565b6104ab81610497565b82525050565b5f60c0820190506104c45f83018961044e565b6104d1602083018861039d565b6104de6040830187610470565b6104eb6060830186610470565b6104f86080830185610488565b61050560a08301846104a2565b979650505050505050565b6105198161045d565b8114610523575f5ffd5b50565b5f8135905061053481610510565b92915050565b6105438161047f565b811461054d575f5ffd5b50565b5f8135905061055e8161053a565b92915050565b5f5f5f6060848603121561057b5761057a6103c5565b5b5f61058886828701610526565b935050602061059986828701610526565b92505060406105aa86828701610550565b9150509250925092565b5f82825260208201905092915050565b7f426f756e747920726571756972656400000000000000000000000000000000005f82015250565b5f6105f8600f836105b4565b9150610603826105c4565b602082019050919050565b5f6020820190508181035f830152610625816105ec565b9050919050565b7f42616420646561646c696e6573000000000000000000000000000000000000005f82015250565b5f610660600d836105b4565b915061066b8261062c565b602082019050919050565b5f6020820190508181035f83015261068d81610654565b9050919050565b7f4e487b71000000000000000000000000000000000000000000000000000000005f52601160045260245ffd5b5f6106cb82610394565b91507fffffffffffffffffffffffffffffffffffffffffffffffffffffffffffffffff82036106fd576106fc610694565b5b600182019050919050565b5f60608201905061071b5f83018661039d565b610728602083018561044e565b610735604083018461039d565b94935050505056fea264697066735822122041994678e1a9b06da1eb9d1194f95856621106d5e5057288a78a51d2087d8c7b64736f6c634300081e0033","linkReferences":{}},"methodIdentifiers":{"createPool(uint64,uint64,bytes32)":"bae915e1","nextPoolId()":"18e56131","pools(uint256)":"ac4afa38"},"id":0}