{"abi":[{"type":"constructor","inputs":[{"name":"usdc_","type":"address","internalType":"address"}],"stateMutability":"nonpayable"},{"type":"function","name":"claim","inputs":[{"name":"batchIdHash","type":"bytes32","internalType":"bytes32"}],"outputs":[],"stateMutability":"nonpayable"},{"type":"function","name":"finalize","inputs":[{"name":"batchIdHash","type":"bytes32","internalType":"bytes32"},{"name":"providers","type":"address[]","internalType":"address[]"},{"name":"scoreE6","type":"uint256[]","internalType":"uint256[]"}],"outputs":[],"stateMutability":"nonpayable"},{"type":"function","name":"fundBatch","inputs":[{"name":"batchIdHash","type":"bytes32","internalType":"bytes32"},{"name":"windowStart","type":"uint64","internalType":"uint64"},{"name":"windowEnd","type":"uint64","internalType":"uint64"},{"name":"seedHash","type":"bytes32","internalType":"bytes32"},{"name":"specHash","type":"bytes32","internalType":"bytes32"},{"name":"bountyAmount","type":"uint256","internalType":"uint256"}],"outputs":[],"stateMutability":"nonpayable"},{"type":"function","name":"getBatch","inputs":[{"name":"batchIdHash","type":"bytes32","internalType":"bytes32"}],"outputs":[{"name":"operator","type":"address","internalType":"address"},{"name":"bounty","type":"uint256","internalType":"uint256"},{"name":"windowStart","type":"uint64","internalType":"uint64"},{"name":"windowEnd","type":"uint64","internalType":"uint64"},{"name":"seedHash","type":"bytes32","internalType":"bytes32"},{"name":"seedRevealed","type":"bool","internalType":"bool"},{"name":"mixBlockNumber","type":"uint64","internalType":"uint64"},{"name":"specHash","type":"bytes32","internalType":"bytes32"},{"name":"funded","type":"bool","internalType":"bool"},{"name":"finalized","type":"bool","internalType":"bool"}],"stateMutability":"view"},{"type":"function","name":"getProvider","inputs":[{"name":"batchIdHash","type":"bytes32","internalType":"bytes32"},{"name":"provider","type":"address","internalType":"address"}],"outputs":[{"name":"payout","type":"uint256","internalType":"uint256"},{"name":"claimed","type":"bool","internalType":"bool"}],"stateMutability":"view"},{"type":"function","name":"lockRandomness","inputs":[{"name":"batchIdHash","type":"bytes32","internalType":"bytes32"}],"outputs":[],"stateMutability":"nonpayable"},{"type":"function","name":"revealSeed","inputs":[{"name":"batchIdHash","type":"bytes32","internalType":"bytes32"},{"name":"seed","type":"bytes32","internalType":"bytes32"}],"outputs":[],"stateMutability":"nonpayable"},{"type":"function","name":"usdc","inputs":[],"outputs":[{"name":"","type":"address","internalType":"contract IERC20"}],"stateMutability":"view"},{"type":"event","name":"BatchFunded","inputs":[{"name":"batchIdHash","type":"bytes32","indexed":true,"internalType":"bytes32"},{"name":"operator","type":"address","indexed":true,"internalType":"address"},{"name":"bounty","type":"uint256","indexed":false,"internalType":"uint256"},{"name":"windowStart","type":"uint64","indexed":false,"internalType":"uint64"},{"name":"windowEnd","type":"uint64","indexed":false,"internalType":"uint64"},{"name":"seedHash","type":"bytes32","indexed":false,"internalType":"bytes32"},{"name":"specHash","type":"bytes32","indexed":false,"internalType":"bytes32"}],"anonymous":false},{"type":"event","name":"Claimed","inputs":[{"name":"batchIdHash","type":"bytes32","indexed":true,"internalType":"bytes32"},{"name":"provider","type":"address","indexed":true,"internalType":"address"},{"name":"amount","type":"uint256","indexed":false,"internalType":"uint256"}],"anonymous":false},{"type":"event","name":"Finalized","inputs":[{"name":"batchIdHash","type":"bytes32","indexed":true,"internalType":"bytes32"}],"anonymous":false},{"type":"event","name":"RandomnessLocked","inputs":[{"name":"batchIdHash","type":"bytes32","indexed":true,"internalType":"bytes32"},{"name":"mixBlockNumber","type":"uint64","indexed":false,"internalType":"uint64"}],"anonymous":false},{"type":"event","name":"SeedRevealed","inputs":[{"name":"batchIdHash","type":"bytes32","indexed":true,"internalType":"bytes32"},{"name":"seed","type":"bytes32","indexed":false,"internalType":"bytes32"},{"name":"randomness","type":"bytes32","indexed":false,"internalType":"bytes32"}],"anonymous":false}],"bytecode":{"object":"0x60a060405234801561000f575f5ffd5b5060405161283138038061283183398181016040528101906100319190610137565b5f73ffffffffffffffffffffffffffffffffffffffff168173ffffffffffffffffffffffffffffffffffffffff160361009f576040517f08c379a0000000000000000000000000000000000000000000000000000000008152600401610096906101bc565b60405180910390fd5b8073ffffffffffffffffffffffffffffffffffffffff1660808173ffffffffffffffffffffffffffffffffffffffff1681525050506101da565b5f5ffd5b5f73ffffffffffffffffffffffffffffffffffffffff82169050919050565b5f610106826100dd565b9050919050565b610116816100fc565b8114610120575f5ffd5b50565b5f815190506101318161010d565b92915050565b5f6020828403121561014c5761014b6100d9565b5b5f61015984828501610123565b91505092915050565b5f82825260208201905092915050565b7f55534443207265717569726564000000000000000000000000000000000000005f82015250565b5f6101a6600d83610162565b91506101b182610172565b602082019050919050565b5f6020820190508181035f8301526101d38161019a565b9050919050565b6080516126316102005f395f81816105260152818161079c0152610f9201526126315ff3fe608060405234801561000f575f5ffd5b5060043610610086575f3560e01c80639778685a116100595780639778685a14610111578063bd66528a1461012d578063ea31f3ca14610149578063ed42136f1461016557610086565b80631408adf31461008a5780633e413bee146100a65780634d908fb5146100c45780638c474c41146100e0575b5f5ffd5b6100a4600480360381019061009f91906113e1565b61019e565b005b6100ae610524565b6040516100bb9190611499565b60405180910390f35b6100de60048036038101906100d99190611522565b610548565b005b6100fa60048036038101906100f591906115e6565b6108da565b60405161010892919061164d565b60405180910390f35b61012b6004803603810190610126919061172a565b610987565b005b610147600480360381019061014291906117bb565b610dc3565b005b610163600480360381019061015e91906117bb565b6110c2565b005b61017f600480360381019061017a91906117bb565b6112b7565b6040516101959a99989796959493929190611813565b60405180910390f35b815f5f8281526020019081526020015f205f015f9054906101000a900473ffffffffffffffffffffffffffffffffffffffff1673ffffffffffffffffffffffffffffffffffffffff163373ffffffffffffffffffffffffffffffffffffffff161461023e576040517f08c379a000000000000000000000000000000000000000000000000000000000815260040161023590611907565b60405180910390fd5b5f5f5f8581526020019081526020015f209050806007015f9054906101000a900460ff166102a1576040517f08c379a00000000000000000000000000000000000000000000000000000000081526004016102989061196f565b60405180910390fd5b806005015f9054906101000a900460ff16156102f2576040517f08c379a00000000000000000000000000000000000000000000000000000000081526004016102e9906119d7565b60405180910390fd5b5f8160050160019054906101000a900467ffffffffffffffff1667ffffffffffffffff1603610356576040517f08c379a000000000000000000000000000000000000000000000000000000000815260040161034d90611a3f565b60405180910390fd5b8060050160019054906101000a900467ffffffffffffffff1667ffffffffffffffff1643116103ba576040517f08c379a00000000000000000000000000000000000000000000000000000000081526004016103b190611aa7565b60405180910390fd5b8060030154836040516020016103d09190611ae5565b6040516020818303038152906040528051906020012014610426576040517f08c379a000000000000000000000000000000000000000000000000000000000815260040161041d90611b49565b60405180910390fd5b5f8160050160019054906101000a900467ffffffffffffffff1667ffffffffffffffff164090505f5f1b8103610491576040517f08c379a000000000000000000000000000000000000000000000000000000000815260040161048890611bb1565b60405180910390fd5b8382600401819055506001826005015f6101000a81548160ff0219169083151502179055505f84826040516020016104ca929190611bcf565b604051602081830303815290604052805190602001209050857f70b17fa91147b8f454224660292e63a453d2a62b278bfcc0e4b22e6a8b62b8818683604051610514929190611bfa565b60405180910390a2505050505050565b7f000000000000000000000000000000000000000000000000000000000000000081565b5f5f1b860361058c576040517f08c379a000000000000000000000000000000000000000000000000000000000815260040161058390611c6b565b60405180910390fd5b5f81116105ce576040517f08c379a00000000000000000000000000000000000000000000000000000000081526004016105c590611cd3565b60405180910390fd5b8367ffffffffffffffff168567ffffffffffffffff1610610624576040517f08c379a000000000000000000000000000000000000000000000000000000000815260040161061b90611d3b565b60405180910390fd5b5f5f1b8303610668576040517f08c379a000000000000000000000000000000000000000000000000000000000815260040161065f90611da3565b60405180910390fd5b5f5f5f8881526020019081526020015f209050806007015f9054906101000a900460ff16156106cc576040517f08c379a00000000000000000000000000000000000000000000000000000000081526004016106c390611e0b565b60405180910390fd5b33815f015f6101000a81548173ffffffffffffffffffffffffffffffffffffffff021916908373ffffffffffffffffffffffffffffffffffffffff16021790555081816001018190555085816002015f6101000a81548167ffffffffffffffff021916908367ffffffffffffffff160217905550848160020160086101000a81548167ffffffffffffffff021916908367ffffffffffffffff1602179055508381600301819055508281600601819055506001816007015f6101000a81548160ff0219169083151502179055505f7f000000000000000000000000000000000000000000000000000000000000000073ffffffffffffffffffffffffffffffffffffffff166323b872dd3330866040518463ffffffff1660e01b81526004016107f793929190611e29565b6020604051808303815f875af1158015610813573d5f5f3e3d5ffd5b505050506040513d601f19601f820116820180604052508101906108379190611e88565b905080610879576040517f08c379a000000000000000000000000000000000000000000000000000000000815260040161087090611efd565b60405180910390fd5b3373ffffffffffffffffffffffffffffffffffffffff16887f4d8db940ac174b76d079e46903d1fa566800eca8d01930d3bbd18ca6dc38b426858a8a8a8a6040516108c8959493929190611f1b565b60405180910390a35050505050505050565b5f5f5f5f5f8681526020019081526020015f209050806008015f8573ffffffffffffffffffffffffffffffffffffffff1673ffffffffffffffffffffffffffffffffffffffff1681526020019081526020015f2054816009015f8673ffffffffffffffffffffffffffffffffffffffff1673ffffffffffffffffffffffffffffffffffffffff1681526020019081526020015f205f9054906101000a900460ff1692509250509250929050565b845f5f8281526020019081526020015f205f015f9054906101000a900473ffffffffffffffffffffffffffffffffffffffff1673ffffffffffffffffffffffffffffffffffffffff163373ffffffffffffffffffffffffffffffffffffffff1614610a27576040517f08c379a0000000000000000000000000000000000000000000000000000000008152600401610a1e90611907565b60405180910390fd5b5f5f5f8881526020019081526020015f209050806007015f9054906101000a900460ff16610a8a576040517f08c379a0000000000000000000000000000000000000000000000000000000008152600401610a819061196f565b60405180910390fd5b8060070160019054906101000a900460ff1615610adc576040517f08c379a0000000000000000000000000000000000000000000000000000000008152600401610ad390611fb6565b60405180910390fd5b8060020160089054906101000a900467ffffffffffffffff1667ffffffffffffffff16421015610b41576040517f08c379a0000000000000000000000000000000000000000000000000000000008152600401610b389061201e565b60405180910390fd5b806005015f9054906101000a900460ff16610b91576040517f08c379a0000000000000000000000000000000000000000000000000000000008152600401610b8890612086565b60405180910390fd5b838390508686905014610bd9576040517f08c379a0000000000000000000000000000000000000000000000000000000008152600401610bd0906120ee565b60405180910390fd5b5f8686905011610c1e576040517f08c379a0000000000000000000000000000000000000000000000000000000008152600401610c1590612156565b60405180910390fd5b5f5f90505f5f90505b87879050811015610c6657858582818110610c4557610c44612174565b5b9050602002013582610c5791906121ce565b91508080600101915050610c27565b505f8111610ca9576040517f08c379a0000000000000000000000000000000000000000000000000000000008152600401610ca09061224b565b60405180910390fd5b5f5f90505b87879050811015610d6e575f888883818110610ccd57610ccc612174565b5b9050602002016020810190610ce29190612269565b90505f83888885818110610cf957610cf8612174565b5b905060200201358660010154610d0f9190612294565b610d199190612302565b905080856008015f8473ffffffffffffffffffffffffffffffffffffffff1673ffffffffffffffffffffffffffffffffffffffff1681526020019081526020015f208190555050508080600101915050610cae565b5060018260070160016101000a81548160ff021916908315150217905550877fd5eaff5f7e00ea5a32e32c0121393190de285e9424ce5485cd0b0a51d6b77d6260405160405180910390a25050505050505050565b5f5f5f8381526020019081526020015f2090508060070160019054906101000a900460ff16610e27576040517f08c379a0000000000000000000000000000000000000000000000000000000008152600401610e1e9061237c565b60405180910390fd5b806009015f3373ffffffffffffffffffffffffffffffffffffffff1673ffffffffffffffffffffffffffffffffffffffff1681526020019081526020015f205f9054906101000a900460ff1615610eb3576040517f08c379a0000000000000000000000000000000000000000000000000000000008152600401610eaa906123e4565b60405180910390fd5b5f816008015f3373ffffffffffffffffffffffffffffffffffffffff1673ffffffffffffffffffffffffffffffffffffffff1681526020019081526020015f205490505f8111610f38576040517f08c379a0000000000000000000000000000000000000000000000000000000008152600401610f2f9061244c565b60405180910390fd5b6001826009015f3373ffffffffffffffffffffffffffffffffffffffff1673ffffffffffffffffffffffffffffffffffffffff1681526020019081526020015f205f6101000a81548160ff0219169083151502179055505f7f000000000000000000000000000000000000000000000000000000000000000073ffffffffffffffffffffffffffffffffffffffff1663a9059cbb33846040518363ffffffff1660e01b8152600401610feb92919061246a565b6020604051808303815f875af1158015611007573d5f5f3e3d5ffd5b505050506040513d601f19601f8201168201806040525081019061102b9190611e88565b90508061106d576040517f08c379a0000000000000000000000000000000000000000000000000000000008152600401611064906124db565b60405180910390fd5b3373ffffffffffffffffffffffffffffffffffffffff16847f0508a8b4117d9a7b3d8f5895f6413e61b4f9a2df35afbfb41e78d0ecfff1843f846040516110b491906124f9565b60405180910390a350505050565b5f5f5f8381526020019081526020015f209050806007015f9054906101000a900460ff16611125576040517f08c379a000000000000000000000000000000000000000000000000000000000815260040161111c9061196f565b60405180910390fd5b806005015f9054906101000a900460ff1615611176576040517f08c379a000000000000000000000000000000000000000000000000000000000815260040161116d9061255c565b60405180910390fd5b5f8160050160019054906101000a900467ffffffffffffffff1667ffffffffffffffff16146111da576040517f08c379a00000000000000000000000000000000000000000000000000000000081526004016111d1906125c4565b60405180910390fd5b8060020160089054906101000a900467ffffffffffffffff1667ffffffffffffffff1642101561123f576040517f08c379a00000000000000000000000000000000000000000000000000000000081526004016112369061201e565b60405180910390fd5b5f60014361124d91906121ce565b9050808260050160016101000a81548167ffffffffffffffff021916908367ffffffffffffffff160217905550827f3122ae6107e4a0d19750601799ba8bbb8bf7cdfff019b1fcfcd2966e1fdcfe26826040516112aa91906125e2565b60405180910390a2505050565b5f5f5f5f5f5f5f5f5f5f5f5f5f8d81526020019081526020015f209050805f015f9054906101000a900473ffffffffffffffffffffffffffffffffffffffff168160010154826002015f9054906101000a900467ffffffffffffffff168360020160089054906101000a900467ffffffffffffffff168460030154856005015f9054906101000a900460ff168660050160019054906101000a900467ffffffffffffffff168760060154886007015f9054906101000a900460ff168960070160019054906101000a900460ff169a509a509a509a509a509a509a509a509a509a50509193959799509193959799565b5f5ffd5b5f5ffd5b5f819050919050565b6113c0816113ae565b81146113ca575f5ffd5b50565b5f813590506113db816113b7565b92915050565b5f5f604083850312156113f7576113f66113a6565b5b5f611404858286016113cd565b9250506020611415858286016113cd565b9150509250929050565b5f73ffffffffffffffffffffffffffffffffffffffff82169050919050565b5f819050919050565b5f61146161145c6114578461141f565b61143e565b61141f565b9050919050565b5f61147282611447565b9050919050565b5f61148382611468565b9050919050565b61149381611479565b82525050565b5f6020820190506114ac5f83018461148a565b92915050565b5f67ffffffffffffffff82169050919050565b6114ce816114b2565b81146114d8575f5ffd5b50565b5f813590506114e9816114c5565b92915050565b5f819050919050565b611501816114ef565b811461150b575f5ffd5b50565b5f8135905061151c816114f8565b92915050565b5f5f5f5f5f5f60c0878903121561153c5761153b6113a6565b5b5f61154989828a016113cd565b965050602061155a89828a016114db565b955050604061156b89828a016114db565b945050606061157c89828a016113cd565b935050608061158d89828a016113cd565b92505060a061159e89828a0161150e565b9150509295509295509295565b5f6115b58261141f565b9050919050565b6115c5816115ab565b81146115cf575f5ffd5b50565b5f813590506115e0816115bc565b92915050565b5f5f604083850312156115fc576115fb6113a6565b5b5f611609858286016113cd565b925050602061161a858286016115d2565b9150509250929050565b61162d816114ef565b82525050565b5f8115159050919050565b61164781611633565b82525050565b5f6040820190506116605f830185611624565b61166d602083018461163e565b9392505050565b5f5ffd5b5f5ffd5b5f5ffd5b5f5f83601f84011261169557611694611674565b5b8235905067ffffffffffffffff8111156116b2576116b1611678565b5b6020830191508360208202830111156116ce576116cd61167c565b5b9250929050565b5f5f83601f8401126116ea576116e9611674565b5b8235905067ffffffffffffffff81111561170757611706611678565b5b6020830191508360208202830111156117235761172261167c565b5b9250929050565b5f5f5f5f5f60608688031215611743576117426113a6565b5b5f611750888289016113cd565b955050602086013567ffffffffffffffff811115611771576117706113aa565b5b61177d88828901611680565b9450945050604086013567ffffffffffffffff8111156117a05761179f6113aa565b5b6117ac888289016116d5565b92509250509295509295909350565b5f602082840312156117d0576117cf6113a6565b5b5f6117dd848285016113cd565b91505092915050565b6117ef816115ab565b82525050565b6117fe816114b2565b82525050565b61180d816113ae565b82525050565b5f610140820190506118275f83018d6117e6565b611834602083018c611624565b611841604083018b6117f5565b61184e606083018a6117f5565b61185b6080830189611804565b61186860a083018861163e565b61187560c08301876117f5565b61188260e0830186611804565b61189061010083018561163e565b61189e61012083018461163e565b9b9a5050505050505050505050565b5f82825260208201905092915050565b7f4e6f74206f70657261746f7200000000000000000000000000000000000000005f82015250565b5f6118f1600c836118ad565b91506118fc826118bd565b602082019050919050565b5f6020820190508181035f83015261191e816118e5565b9050919050565b7f4e6f742066756e646564000000000000000000000000000000000000000000005f82015250565b5f611959600a836118ad565b915061196482611925565b602082019050919050565b5f6020820190508181035f8301526119868161194d565b9050919050565b7f416c72656164792072657665616c6564000000000000000000000000000000005f82015250565b5f6119c16010836118ad565b91506119cc8261198d565b602082019050919050565b5f6020820190508181035f8301526119ee816119b5565b9050919050565b7f52616e646f6d6e657373206e6f74206c6f636b656400000000000000000000005f82015250565b5f611a296015836118ad565b9150611a34826119f5565b602082019050919050565b5f6020820190508181035f830152611a5681611a1d565b9050919050565b7f5761697420666f72206d697820626c6f636b00000000000000000000000000005f82015250565b5f611a916012836118ad565b9150611a9c82611a5d565b602082019050919050565b5f6020820190508181035f830152611abe81611a85565b9050919050565b5f819050919050565b611adf611ada826113ae565b611ac5565b82525050565b5f611af08284611ace565b60208201915081905092915050565b7f42616420736565640000000000000000000000000000000000000000000000005f82015250565b5f611b336008836118ad565b9150611b3e82611aff565b602082019050919050565b5f6020820190508181035f830152611b6081611b27565b9050919050565b7f4d697820626c6f636b6861736820756e617661696c61626c65000000000000005f82015250565b5f611b9b6019836118ad565b9150611ba682611b67565b602082019050919050565b5f6020820190508181035f830152611bc881611b8f565b9050919050565b5f611bda8285611ace565b602082019150611bea8284611ace565b6020820191508190509392505050565b5f604082019050611c0d5f830185611804565b611c1a6020830184611804565b9392505050565b7f42616420626174636849644861736800000000000000000000000000000000005f82015250565b5f611c55600f836118ad565b9150611c6082611c21565b602082019050919050565b5f6020820190508181035f830152611c8281611c49565b9050919050565b7f426f756e747920726571756972656400000000000000000000000000000000005f82015250565b5f611cbd600f836118ad565b9150611cc882611c89565b602082019050919050565b5f6020820190508181035f830152611cea81611cb1565b9050919050565b7f4261642077696e646f77000000000000000000000000000000000000000000005f82015250565b5f611d25600a836118ad565b9150611d3082611cf1565b602082019050919050565b5f6020820190508181035f830152611d5281611d19565b9050919050565b7f42616420736565644861736800000000000000000000000000000000000000005f82015250565b5f611d8d600c836118ad565b9150611d9882611d59565b602082019050919050565b5f6020820190508181035f830152611dba81611d81565b9050919050565b7f416c72656164792066756e6465640000000000000000000000000000000000005f82015250565b5f611df5600e836118ad565b9150611e0082611dc1565b602082019050919050565b5f6020820190508181035f830152611e2281611de9565b9050919050565b5f606082019050611e3c5f8301866117e6565b611e4960208301856117e6565b611e566040830184611624565b949350505050565b611e6781611633565b8114611e71575f5ffd5b50565b5f81519050611e8281611e5e565b92915050565b5f60208284031215611e9d57611e9c6113a6565b5b5f611eaa84828501611e74565b91505092915050565b7f55534443207472616e7366657246726f6d206661696c656400000000000000005f82015250565b5f611ee76018836118ad565b9150611ef282611eb3565b602082019050919050565b5f6020820190508181035f830152611f1481611edb565b9050919050565b5f60a082019050611f2e5f830188611624565b611f3b60208301876117f5565b611f4860408301866117f5565b611f556060830185611804565b611f626080830184611804565b9695505050505050565b7f416c72656164792066696e616c697a65640000000000000000000000000000005f82015250565b5f611fa06011836118ad565b9150611fab82611f6c565b602082019050919050565b5f6020820190508181035f830152611fcd81611f94565b9050919050565b7f546f6f206561726c7900000000000000000000000000000000000000000000005f82015250565b5f6120086009836118ad565b915061201382611fd4565b602082019050919050565b5f6020820190508181035f83015261203581611ffc565b9050919050565b7f53656564206e6f742072657665616c65640000000000000000000000000000005f82015250565b5f6120706011836118ad565b915061207b8261203c565b602082019050919050565b5f6020820190508181035f83015261209d81612064565b9050919050565b7f4c656e677468206d69736d6174636800000000000000000000000000000000005f82015250565b5f6120d8600f836118ad565b91506120e3826120a4565b602082019050919050565b5f6020820190508181035f830152612105816120cc565b9050919050565b7f4e6f2070726f76696465727300000000000000000000000000000000000000005f82015250565b5f612140600c836118ad565b915061214b8261210c565b602082019050919050565b5f6020820190508181035f83015261216d81612134565b9050919050565b7f4e487b71000000000000000000000000000000000000000000000000000000005f52603260045260245ffd5b7f4e487b71000000000000000000000000000000000000000000000000000000005f52601160045260245ffd5b5f6121d8826114ef565b91506121e3836114ef565b92508282019050808211156121fb576121fa6121a1565b5b92915050565b7f5a65726f207765696768747300000000000000000000000000000000000000005f82015250565b5f612235600c836118ad565b915061224082612201565b602082019050919050565b5f6020820190508181035f83015261226281612229565b9050919050565b5f6020828403121561227e5761227d6113a6565b5b5f61228b848285016115d2565b91505092915050565b5f61229e826114ef565b91506122a9836114ef565b92508282026122b7816114ef565b915082820484148315176122ce576122cd6121a1565b5b5092915050565b7f4e487b71000000000000000000000000000000000000000000000000000000005f52601260045260245ffd5b5f61230c826114ef565b9150612317836114ef565b925082612327576123266122d5565b5b828204905092915050565b7f4e6f742066696e616c697a6564000000000000000000000000000000000000005f82015250565b5f612366600d836118ad565b915061237182612332565b602082019050919050565b5f6020820190508181035f8301526123938161235a565b9050919050565b7f416c726561647920636c61696d656400000000000000000000000000000000005f82015250565b5f6123ce600f836118ad565b91506123d98261239a565b602082019050919050565b5f6020820190508181035f8301526123fb816123c2565b9050919050565b7f4e6f207061796f757400000000000000000000000000000000000000000000005f82015250565b5f6124366009836118ad565b915061244182612402565b602082019050919050565b5f6020820190508181035f8301526124638161242a565b9050919050565b5f60408201905061247d5f8301856117e6565b61248a6020830184611624565b9392505050565b7f55534443207472616e73666572206661696c65640000000000000000000000005f82015250565b5f6124c56014836118ad565b91506124d082612491565b602082019050919050565b5f6020820190508181035f8301526124f2816124b9565b9050919050565b5f60208201905061250c5f830184611624565b92915050565b7f536565642072657665616c6564000000000000000000000000000000000000005f82015250565b5f612546600d836118ad565b915061255182612512565b602082019050919050565b5f6020820190508181035f8301526125738161253a565b9050919050565b7f416c7265616479206c6f636b65640000000000000000000000000000000000005f82015250565b5f6125ae600e836118ad565b91506125b98261257a565b602082019050919050565b5f6020820190508181035f8301526125db816125a2565b9050919050565b5f6020820190506125f55f8301846117f5565b9291505056fea264697066735822122017cc187970da759ed7d32635abc408cafed9490d80ea90ec17ba6f78e557d6bc64736f6c634300081e0033","linkReferences":{}},"methodIdentifiers":{"claim(bytes32)":"bd66528a","finalize(bytes32,address[],uint256[])":"9778685a","fundBatch(bytes32,uint64,uint64,bytes32,bytes32,uint256)":"4d908fb5","getBatch(bytes32)":"ed42136f","getProvider(bytes32,address)":"8c474c41","lockRandomness(bytes32)":"ea31f3ca","revealSeed(bytes32,bytes32)":"1408adf3","usdc()":"3e413bee"},"id":16}